/PROCESSOR MANAGEMENT AND INPUT   PAL8-V7  1/31/77   PAGE 19

01363  1641
01364  1343
01365  1327
01366  0462
01367  1600
01370  1323
01371  0355
01372  0354
01373  0010
01374  1100
01375  0270
01376  1000
01377  6777
       1400          *1400
01400  0000  AFOC,   0       /POINTER TO PREVIOUS CELL WHEN DOING CHAIN OPERATIONS.

             /SERVICE ROUTINES FOR ALOC AND FREE

             /ADVANCE DOWN CHAIN, SKIP IF NO END
             /ENTER: AC=0,DF=AREA DF, EXIT: AC=0,X->CURRENT CELL,XM=7
01401  0000  AFADV,  0
01402  1030          TAD AFCC
01403  3200          DCA AFOC
01404  1430          TAD I AFCC
01405  6673          LDX SXM 70
01406  7440          SZA
01407  2201          ISZ AFADV
01410  3030          DCA AFCC
01411  5601          JMP I AFADV

             /DELETE CURRENT CELL FROM CHAIN, SAVE POINTER TO THAT CELL IN X
             /ENTER: AC=0,DF=AREA DF, EXIT: AC=0,X->DELETED CELL,XM=7
01412  0000  AFDLT,  0
01413  1030          TAD AFCC
01414  6677          LDXC SXM 70
01415  1200          TAD AFOC
01416  3030          DCA AFCC
01417  1100          TAD X
01420  3600          DCA I AFOC
01421  5612          JMP I AFDLT

             /INSERT CELL POINTED TO BY AFSC BEFORE THE CURRENT CELL
             /ENTER: AC=0,DF=AREA DF; EXIT: AC=0, AFCC INVALID
01422  0000  AFINS,  0
01423  1025          TAD AFSC
01424  3600          DCA I AFOC
01425  1030          TAD AFCC
01426  3425          DCA I AFSC
01427  5622          JMP I AFINS

             /MOVE DOWN CHAIN UNTIL SIZE OF CURRENT CELL >= -AFSIZE(SKIP), OF
             /END OF CHAIN (NO SKIP)
             /ENTERY: AC=0, DF=AREA DF; EXIT: AC=0
01430  0000  AFSCH,  0
01431  1027          TAD AFAREA

/PROCESSOR MANAGEMENT AND INPUT   PAL8-V7  1/31/77   PAGE 19-1

01432  3030          DCA AFCC
01433  4201  AFSL1,  JMS AFADV
01434  5630          JMP I AFSCH
01435  1101          TAD X+1
01436  1026          TAD AFSIZE
01437  7710          SPA CLA
01440  5233          JMP AFSL1
01441  2230          ISZ AFSCH
01442  5630          JMP I AFSCH

             /PUSH CELL POINTED TO BY AFSC ON CHAIN IN PROPER PLACE
             /ENTER AC=0,DF=AREA DF; EXIT: AC=0, AFCC INVALID
01443  0000  AFPUT,  0
01444  4230          JMS AFSCH
01445  7000          NOP
01446  4222          JMS AFINS
01447  5643          JMP I AFPUT

             /CHANGE TO DATA FIELD OF BASED AREA
01450  0000  AFCDF,  0
01451  7000          NOP             /CDF PUT HERE
01452  5650          JMP I AFCDF

/PROCESSOR MANAGEMENT AND INPUT   PAL8-V7  1/31/77   PAGE 20

             /PICK UP ARGUMENTS FOR ALOC,FREE,BSINIT
             /SVCARG -> 62N1  DATA FIELD OF BASED AREA
             /          ADDRESS OF BASED AREA
             /          POINTER (ALOC/FREE) OF SIZE (BSINIT)
             /          LENGTH (FOR ALOC)
             / EXIT WITH XM=7, DF=AREA DF
             /
01453  0000  AFARG,  0
01454  1024          TAD SVCARG      /PUT POINTER TO ARG LIST IN X
01455  6677          LDXC SXM 70
01456  4777'         JMS SVCDF
01457  1100          TAD X
01460  3251          DCA AFCDF+1
01461  1101          TAD X+1
01462  3027          DCA AFAREA
01463  1102          TAD X+2
01464  3025          DCA AFSC
01465  1103          TAD X+3         /HACK LENGTH FOR ALOC
01466  7050          CMA RAR
01467  7104          CLL RAL
01470  3026          DCA AFSIZE
01471  4250          JMS AFCDF
01472  5653          JMP I AFARG

             /INITIALIZE A BASED STORAGE AREA
01473  0000  BSINIT, 0
01474  4253          JMS AFARG       /PICK UP ARGUMENTS
01475  1027          TAD AFAREA      /GET POINTER TO AREA
01476  6673          LDX SXM 70
01477  7001          IAC             /MAKE ONE BIG FREE PARTITION
01500  3100          DCA X           /SET FREE POINTER
01501  3101          DCA X+1
01502  7240          STA
01503  1025          TAD AFSC
01504  7010          RAR
01505  7104          CLL RAL
01506  3102          DCA X+2
01507  5673          JMP I BSINIT

/PROCESSOR MANAGEMENT AND INPUT   PAL8-V7  1/31/77   PAGE 21

01577  0354
       1600          *1600
             /ALLOCATE PARTITION. SKIP IF OK
01600  0000  ALOC,   0
01601  4777'         JMS AFARG       /PICK UP ARGUMENTS
01602  4776'         JMS AFSCH       /SEARCH FOR BEST FIT PARTITION
01603  5600          JMP I ALOC      /NONE, NON-SKIP RETURN
01604  4775'         JMS AFDLT       /DELETE PARTITION
01605  1026          TAD AFSIZE      /INSERT SIZE OF NEW PARTITION
01606  7041          CIA
01607  3100          DCA X
01610  1026          TAD AFSIZE      /EXACT FIT?
01611  1101          TAD X+1
01612  7450          SNA
01613  5236          JMP ALSKP       /YES, GO TO SKIP RETURN
01614  3026          DCA AFSIZE      /NO, BREAK UP PARTITION. AFSIZE IS LENGTH
01615  6072          RDX             /OF NEW FREE PARTITION
01616  7421          MQL             /SAVE POINTER TO PARTITION IN THE MQ
01617  7501          MQA
01620  1100          TAD X
01621  6601          LDX
01622  3025          DCA AFSC
01623  1026          TAD AFSIZE
01624  3101          DCA X+1
01625  4774'         JMS AFPUT       /RETURN PARTITION TO FREE LIST
01626  1024  ALRET,  TAD SVCARG      /RETURN POINTER
01627  6605          LDXC
01630  4773'         JMS SVCDF
01631  7501          MQA
01632  7001          IAC
01633  3102          DCA X+2
01634  2200          ISZ ALOC
01635  5600          JMP I ALOC
01636  6072  ALSKP,  RDX
01637  7421          MQL
01640  5226          JMP ALRET

/PROCESSOR MANAGEMENT AND INPUT   PAL8-V7  1/31/77   PAGE 22

             /FREE PARTITION
01641  0000  FREE,   0
01642  4777'         JMS AFARG       /PICK UP ARGUMENTS
01643  7240          STA             /FIRST GET THE REAUL POINTER TO THE PARTITION
01644  1025          TAD AFSC
01645  6673          LDX SXM 70
01646  3025          DCA AFSC
01647  1100          TAD X           /GET THE LENGTH OF THE PARTITION
01650  3026          DCA AFSIZE
01651  1025          TAD AFSC        /SET UP UPPER VALUE
01652  7041          CIA
01653  3317          DCA FRLOW
01654  1025          TAD AFSC        /SET UP UPPER VALUE
01655  1026          TAD AFSIZE
01656  7041          CIA
01657  3320          DCA FRHIGH

             /SCAN FREE LIST AND COMBINE ADJACENT PARTITIONS
01660  1027          TAD AFAREA
01661  3030          DCA AFCC
01662  4772' FRL1,   JMS AFADV       /ADVANCE
01663  5306          JMP FRL2        /END OF LIST
01664  6072          RDX             /IS IT BELOW?
01665  1101          TAD X+1
01666  1317          TAD FRLOW
01667  7640          SZA CLA
01670  5300          JMP FRL3
01671  4775'         JMS AFDLT       /YES, COMBINE
01672  6072          RDX
01673  3025          DCA AFSC
01674  1101  FRL4,   TAD X+1         /UPDATE THE SIZE OF THE PARTITION BEING FREED
01675  1026          TAD AFSIZE
01676  3026          DCA AFSIZE
01677  5262          JMP FRL1
01700  6072  FRL3,   RDX             /IS IT ABOVE?
01701  1320          TAD FRHIGH
01702  7640          SZA CLA
01703  5262          JMP FRL1
01704  4775'         JMS AFDLT
01705  5274          JMP FRL4

             /DONE COMBINING, PUT PARTITION ON FREE LIST
01706  1025  FRL2,   TAD AFSC
01707  6605          LDXC
01710  1026          TAD AFSIZE
01711  3101          DCA X+1
01712  1026          TAD AFSIZE
01713  7041          CIA
01714  3026          DCA AFSIZE
01715  4774'         JMS AFPUT
01716  5641          JMP I FREE
01717  0000  FRLOW,  0
01720  0000  FRHIGH, 0

/PROCESSOR MANAGEMENT AND INPUT   PAL8-V7  1/31/77   PAGE 23

01772  1401
01773  0354
01774  1443
01775  1412
01776  1430
01777  1453
       2000          *2000
             /THIS ROUTINE IS THE INITIAL ENTRY POINT FOR THE ENTIRE SYSTEM.
             /IT INITIALIZES ALL FO THE I/O BUFFERS AND OTHER APPROPRIATE
             /VARIABLES, AND THEN CREATES THE FIRST PROCESS AND ENTERS THE
             /TRAFFIC CONTROLLER.
02000  1377  STRTUP, TAD (STTAB-1    /READ FROM STTAB TO INITIALIZE EVERYTHING
02001  3017          DCA 17
02002  1417  STL1,   TAD I 17        /GET ADDRESS
02003  7450          SNA
02004  5212          JMP STL2        /END OF TABLE
02005  3211          DCA STADDR
02006  1417          TAD I 17        /GET DATA
02007  3611          DCA I STADDR
02010  5202          JMP STL1
02011  0000  STADDR, 0
02012  7000  STL2,   NOP             /OR HALT FOR TESTING
02013  4776'         JMS BSINIT      /INITIALIZE SYSTEM BASED STORAGE. SVCARG,
                                     /SVCDF SUPPLIED BY ABOVE LOOP.
02014  1375          TAD (STFRK      /CALL FORK TO CREATE FIRST PROCESS
02015  3024          DCA SVCARG
02016  4774'         JMS FORK
02017  7402          HLT             /HALT IF NOT OK.
02020  5773'         JMP TC
02021  6201  STBSIN, CDF             /ARG LIST FOR CALL TO BSINIT
02022  7000          SYSBS
02023  0600          SBSSIZ
02024  0200  STFRK,  0200            /ARG LIST FOR CALL TO FORK
02025  0011          0011
02026  0400          400

/PROCESSOR MANAGEMENT AND INPUT   PAL8-V7  1/31/77   PAGE 24

             /SVC ROUTINE FOR CHARACTER OUTPUT
             /SVCARG -> BSC, CHAR IN ISVAC. SKIP IF CHARACTER SHOULD NOT
             /BE TYPED (PUNCHED)
02027  0000  CHOUT,  0
02030  1024          TAD SVCARG      /PUT POINTER TO BSC IN X
02031  6667          LDXC SXM 60
02032  7340          STA CLL         /DECREMENT INTEGER
02033  1104          TAD X+4
02034  3104          DCA X+4
02035  7420          SNL             /IF LINK = 0, RESULT WAS -1 AND CHARACTER
02036  5627          JMP I CHOUT     /SHOULD BE TYPED INSTED OF PUT IN THE BUFFER
02037  1772'         TAD ISVAC
02040  4771'         JMS SWRING
02041  2227          ISZ CHOUT
02042  5627          JMP I CHOUT

             /SVC ROUTINE FOR CHARACTER INPUT
             /SVCARG -> BSC, RETURN CHARACTER TO ISVAC
02043  0000  CHIN,   0
02044  1024          TAD SVCARG
02045  6667          LDXC SXM 60
02046  4770'         JMS SRRING      /READNEXT CHAR
02047  3772'         DCA ISVAC
02050  7240          STA             /DECREMENT INTEGER
02051  1104          TAD X+4
02052  3104          DCA X+4
02053  5643          JMP I CHIN

/PROCESSOR MANAGEMENT AND INPUT   PAL8-V7  1/31/77   PAGE 25

             /CHARACTER OUTPUT ROUTINES. NOT RE-ENTRENT.

             /PUNCH ONE CHARACTER
02054  0000  PUNCH,  0
02055  6005          PION
02056  6571          SVC             /P ON THE SEMAPHORE
02057  1200          P
02060  2327          PTPSEM
02061  6571          SVC             /WRITE CHAR INTO BUFFER
02062  2027          CHOUT
02063  2331          PTPBSC
02064  6026          PLS             /PUNCH IF NECESSARY
02065  7200          CLA
02066  5654          JMP I PUNCH

             /TYPE ONE CHARACTER (TTY1)
02067  0000  TYPE1,  0
02070  6005          PION
02071  7450          SNA
02072  5667          JMP I TYPE1
02073  6571          SVC
02074  1200          P
02075  2336          TP1SEM
02076  6571          SVC
02077  2027          CHOUT
02100  2340          TP1BSC
02101  6046          TLS
02102  1367          TAD (-212       /IMPLEMENT LF COUNTER
02103  7650          SNA CLA
02104  2035          ISZ LFCT1
02105  7000          NOP
02106  5667          JMP I TYPE1

             /TYPE ONE CHARACTER (TTY2)
02107  0000  TYPE2,  0
02110  6005          PION
02111  6571          SVC
02112  1200          P
02113  2345          TP2SEM
02114  6571          SVC
02115  2027          CHOUT
02116  2347          TP2BSC
02117  6146          T2LS
02120  1367          TAD (-212       /IMPLEMENT LF COUNTER
02121  7650          SNA CLA
02122  2036          ISZ LFCT2
02123  7000          NOP
02124  5707          JMP I TYPE2

/PROCESSOR MANAGEMENT AND INPUT   PAL8-V7  1/31/77   PAGE 26

             /CHARACTER INPUT ROUTINES. NO RE-ENTRENT

             /READ ONE CHARACTER FROM TTY1
02125  0000  RD11,   0
02126  6005          PION
02127  6571          SVC
02130  1200          P
02131  2361          KB1SEM
02132  6571          SVC
02133  2043          CHIN
02134  2354          KB1BSC
02135  5725          JMP I RD11

             /READ ONE CHARACTER FROM TTY2
02136  0000  RD12,   0
02137  6005          PION
02140  6571          SVC
02141  1200          P
02142  2370          KB2SEM
02143  6571          SVC
02144  2043          CHIN
02145  2363          KB2BSC
02146  5736          JMP I RD12

/PROCESSOR MANAGEMENT AND INPUT   PAL8-V7  1/31/77   PAGE 27

02167  7566
02170  0734
02171  0722
02172  0462
02173  0400
02174  1252
02175  2024
02176  1473
02177  2177
       2200          *2200
             /TABLE FOR STRTUP
02200  0024  STTAB,  SVCARG; STBSIN  /FOR THE CALL TO BSINIT
02201  2021
02202  0355          SVCDF+1; CDF
02203  6201
02204  0462          ISVAC; 0
02205  0000
02206  2327          PTPSEM; PTPSIZ  /PUNCH OUTPUT BUFFER
02207  0024
02210  2330          PTPSEM+1; 0
02211  0000
02212  2333          PTPBSC+2; PTPBUF+PTPSIZ-1
02213  2423
02214  2334          PTPBSC+3; PTPBUF
02215  2400
02216  2335          PTPBSC+4; 0
02217  0000
02220  2336          TP1SEM; TP1SIZ  /TTY1 OUTPUT BUFFER
02221  0024
02222  2337          TP1SEM+1; 0
02223  0000
02224  2342          TP1BSC+2; TP1BUF+TP1SIZ-1
02225  2447
02226  2343          TP1BSC+3; TP1BUF
02227  2424
02230  2344          TP1BSC+4; 0
02231  0000
02232  2345          TP2SEM; TP2SIZ  /TTY2 OUTPUT BUFFER
02233  0024
02234  2346          TP2SEM+1; 0
02235  0000
02236  2351          TP2BSC+2; TP2BUF+TP2SIZ-1
02237  2473
02240  2352          TP2BSC+3; TP2BUF
02241  2450
02242  2353          TP2BSC+4; 0
02243  0000
02244  2361          KB1SEM; 0       /TTY1 INPUT BUFFER
02245  0000
02246  2362          KB1SEM+1; 0
02247  0000
02250  2356          KB1BSC+2; KB1BUF+KB1SIZ-1
02251  2517
02252  2357          KB1BSC+3; KB1BUF
02253  2474

/PROCESSOR MANAGEMENT AND INPUT   PAL8-V7  1/31/77   PAGE 27-1

02254  2360          KB1BSC+4; -KB1SIZ-1
02255  7753
02256  2370          KB2SEM; 0       /TTY2 INPUT BUFFER
02257  0000
02260  2371          KB2SEM+1; 0
02261  0000
02262  2365          KB2BSC+2; KB2BUF+KB2SIZ-1
02263  2543
02264  2366          KB2BSC+3; KB2BUF
02265  2520
02266  2367          KB2BSC+4; -KB2SIZ-1
02267  7753
02270  0753          ITGSEM; 0       /INTEGRATOR SEMAPHORE
02271  0000
02272  0754          ITGSEM+1; 0
02273  0000
02274  1062          ITM1+2; 0       /TIMERS
02275  0000
02276  1066          ITM2+2; 0
02277  0000
02300  1072          ITM3+2; 0
02301  0000
02302  1076          ITM4+2; 0
02303  0000
02304  0023          IMASK; SYSMSK   /INITIAL SYSTEM INTERRUPT MASK
02305  0111
02306  0020          RUN; 0
02307  0000
02310  0021          READY; 0
02311  0000
02312  0200          INTHDL; NOP
02313  7000
02314  5705          DTSEM; 0
02315  0000
02316  5706          DTSEM+1; 0
02317  0000
02320  5707          TC1SEM; 1
02321  0001
02322  5710          TC1SEM+1; 0
02323  0000
02324  0037          SCFLG; 0
02325  0000
02326  0000          0

/PROCESSOR MANAGEMENT AND INPUT   PAL8-V7  1/31/77   PAGE 28

             /DATABASES FOR TELETYPES, PUNCH
02327  0000  PTPSEM, 0; 0
02330  0000
02331  2400  PTPBSC, PTPBUF
02332  5354          -PTPBUF-PTPSIZ
02333  0000          0
02334  0000          0
02335  0000          0

02336  0000  TP1SEM, 0; 0
02337  0000
02340  2424  TP1BSC, TP1BUF
02341  5330          -TP1BUF-TP1SIZ
02342  0000          0
02343  0000          0
02344  0000          0

02345  0000  TP2SEM, 0; 0
02346  0000
02347  2450  TP2BSC, TP2BUF
02350  5304          -TP2BUF-TP2SIZ
02351  0000          0
02352  0000          0
02353  0000          0

02354  2474  KB1BSC, KB1BUF
02355  5260          -KB1BUF-KB1SIZ
02356  0000          0
02357  0000          0
02360  0000          0
02361  0000  KB1SEM, 0; 0
02362  0000

02363  2520  KB2BSC, KB2BUF
02364  5234          -KB2BUF-KB2SIZ
02365  0000          0
02366  0000          0
02367  0000          0
02370  0000  KB2SEM, 0; 0
02371  0000

/PROCESSOR MANAGEMENT AND INPUT   PAL8-V7  1/31/77   PAGE 29

       2400          *2400
             /CHARACTER INPUT/OUPUT BUFFERS
       0024  PTPSIZ=24
       0024  TP1SIZ=24
       0024  TP2SIZ=24
       0024  KB1SIZ=24
       0024  KB2SIZ=24

02400  0000  PTPBUF, ZBLOCK 24
02424  0000  TP1BUF, ZBLOCK 24
02450  0000  TP2BUF, ZBLOCK 24
02474  0000  KB1BUF, ZBLOCK 24
02420  0000  KB2BUF, ZBLOCK 24

/PROCESSOR MANAGEMENT AND INPUT   PAL8-V7  1/31/77   PAGE 30

       2600          *2600
             /LINKAGE FOR RE-ENTRENT SUBROUTINE CALL (SVC ROUTINE)
             /SVC
             /CALL
             /-----> SUBROUTINE ADDRESS
             /       BITS6-8 = FIELD OF SUBR., B9-11 = FIELD OF CALL
             /       START OF ARGUMENT LIST
             /FIRST WORD OF SUBROUTINE CONTAINS NUMBER OF WORKING REGISTERS NEEDED,
             /INCLUDING THE HEADER. ALLOCATE A WREG. FRAME, PUSH IT ONTO THE CHAIN
             /SET UP THE HEADER, AND CHANGE ISVPC AND ISVMF FOR ENTRY INTO THE SUBR.
02600  0000  CALL,   0
02601  1024          TAD SVCARG      /PICK UP ARGUMENTS
02602  6673          LDX SXM 70
02603  3256          DCA CLIS        /SAVE POINTER TO ARGUMENT LIST
02604  4777'         JMS SVCDF
02605  1100          TAD X           /GET SUBROUTINE ADDRESS
02606  3257          DCA CALLPC
02607  1101          TAD X+1         /GET SUBROUTINE MEMORY FIELDS
02610  3260          DCA CALLMF
02611  1260          TAD CALLMF      /GET NUMBER OF WREGS. NEEDED
02612  0376          AND (70         /CHANGE TO FIELD OF SUBROUTINE TO PICK
02613  1220          TAD CLCD        /UP THE APPROPRIATE NUMBER
02614  3215          DCA .+1
02615  7000          NOP
02616  1657          TAD I CALLPC
02617  3264          DCA CLALST+3    /PUT NUMBER IN ARG LIST
02620  6201  CLCDF,  CDF             /SET UP FOR CALL TO ALOC
02621  1220          TAD CLCD        /SET SVCDF
02622  3775'         DCA SVCDF+1
02623  1374          TAD (CLALST     /SET SVCARG
02624  3024          DCA SVCARG
02625  4773'         JMS ALOC        /CALL ALOC
02626  5600          JMP I CALL      /ERROR RETURN
02627  1020          TAD RUN         /PUSH WREG. FRAME
02630  6667          LDXC SXM 60
02631  1102          TAD X+PCBWR
02632  3663          DCA I CLALST+2
02633  1263          TAD CLALST+2
02634  3102          DCA X+PCBWR
02635  1102          TAD X+PCBWR     /SET PWREGS
02636  3003          DCA PWREGS
02637  7240          STA             /LOAD THE HEADER
02640  1003          TAD PWREGS      /LOAD X FOR THE CALL TO UPPCB
02641  6605          LDXC
02642  4772'         JMS UPPCB       /LOAD THE SAVED REGISTERS
02643  7105          CLL IAC RAL     /LOAD THE POINTER TO THE ARG LIST
02644  1256          TAD CLIST
02645  3102          DCA X+WRALST+1  /+1 BECAUSE X POINTS TO WREGS. - 1
02646  1257          TAD CALLPC      /SET UP ISVPC AND ISVMF
02647  7001          IAC
02650  3771'         DCA ISVPC
02651  1260          TAD CALLMF
02652  3770'         DCA ISVMF
02653  1263          TAD CLALST+2    /SET NEW X TO POINT TO THE WREGS.
02654  3767'         DCA ISVX

/PROCESSOR MANAGEMENT AND INPUT   PAL8-V7  1/31/77   PAGE 30-1

02655  5600          JMP I CALL
02656  0000  CLIST,  0
02657  0000  CALLPC, 0
02660  0000  CALLMF, 0
02661  6201  CLALST, CDF             /ARG LIST FOR CALL TO ALOC
02662  7000          SYSBS
02663  0000          0
02664  0000          0

/PROCESSOR MANAGEMENT AND INPUT   PAL8-V7  1/31/77   PAGE 31

             /RETURN LINKAGE FOR SVC CALL MECHANISM
             /POP WREG. FRAME, RESET PWREGS, RESTORE SAVED REGISTERS, FREE FRAME.
02665  0000  RETURN, 0
02666  1020          TAD RUN         /POP FRAME
02667  6667          LDXC SXM 60
02670  1102          TAD X+PCBWR     /FIRSRT SAVE POINTER TO FRAME
02671  3324          DCA RTALST+2    /IN ARG LIST FOR CALL TO FREE
02672  1502          TAD I X+PCBWR   /UNCHAIN THE FRAME
02673  3102          DCA X+PCBWR
02674  1102          TAD X+PCBWR     /RESET PWREGS
02675  3003          DCA PWREGS
02676  1324          TAD RTALST+2    /RESTORE SAVED REGISTERS:
02677  6605          LDXC
02700  1102          TAD X+WRPC      /PC
02701  3771'         DCA ISVPC
02702  1103          TAD X+WRAC      /AC
02703  3766'         DCA ISVAC
02704  1104          TAD X+WRMQ      /MQ
02705  3765'         DCA ISVMQ
02706  1105          TAD X+WRX       /X
02707  3767'         DCA ISVX
02710  1106          TAD X+WRLXM     /LXM
02711  3764'         DCA ISVLXM
02712  1107          TAD X+WRMF      /MF
02713  3770'         DCA ISVMF
02714  1322          TAD RTALST      /SET UP FOR CALL TO FREE
02715  3775'         DCA SVCDF+1
02716  1363          TAD (RTALST
02717  3024          DCA SVCARG
02720  4762'         JMS FREE
02721  5665          JMP I RETURN
02722  6201  RTALST, CDF
02723  7000          SYSBS
02724  0000          0

/PROCESSOR MANAGEMENT AND INPUT   PAL8-V7  1/31/77   PAGE 32

             /NULL ROUTINE
02725  0000  NULL,   0
02726  6005          PION
02727  5725          JMP I NULL

             /SKIP IF CTRL/O FROM TTY1, RESET THE CTRL/O SWITCH
02730  0000  CTRL01, 0
02731  1005          TAD CCSW1+1
02732  7104          CLL RAL
02733  7430          SZL
02734  2330          ISZ CTRL01
02735  7110          CLL RAR
02736  3005          DCA CCSW1+1
02737  6005          PION
02740  5730          JMP I CTRL01

             /SKIP IF CTRL/O FROM TTY1, RESET THE CTRL/O SWITCH
02741  0000  CTRL02, 0
02742  1007          TAD CCSW2+1
02743  7104          CLL RAL
02744  7430          SZL
02745  2341          ISZ CTRL02
02746  7110          CLL RAR
02747  3007          DCA CCSW2+1
02750  6005          PION
02751  5741          JMP I CTRL02

/PROCESSOR MANAGEMENT AND INPUT   PAL8-V7  1/31/77   PAGE 33

02762  1641
02763  2722
02764  0266
02765  0264
02766  0462
02767  0265
02770  0267
02771  0461
02772  0270
02773  1600
02774  2661
02775  0355
02776  0070
02777  0354
       3000          *3000
             /DO SPECIAL POINTER ADDRESSING FOR ARGUMENT PICK UP
             /ENTER X -> WREGS.
             /WRALST--->     B3-5<>0 => ADD SAVED AC6-8 TO DF,
             /               B6-8=DF, B9-11= 0  OFFSET FROM   0
             /                               1                CUR. WREG. FRAME
             /                               2                PREV. WREG. FRAME
             /                               4                SAVED PC
             /                               5                       AC
             /                               6                       MQ
             /                               7                       X
             /               OFFSET
             /
             /UPDATE WRALST, RETURN STUFF TO THW WREG. HEADER, IF WORD ONE IS
             /<0 RETURN WITH IT IN THE AC, IF NOT, SKIP, RETURN WITH DF SET TO
             /THE DF OF THE ARGUMENT.
03000  0000  VARAD,  0
03001  1200          TAD VARAD
03002  3113          DCA X+WR3
03003  4777'         JMS ARGCDF      /CHANGE TO DF OF ARG LIST
03004  1501          TAD I X+WRALST  /IF BITS 3-5 <>0, ADD IN BASE FIELD
03005  0376          AND (700
03006  7640          SZA CLA
03007  1103          TAD X+WRAC
03010  0375          AND (70
03011  3110          DCA X+WR0
03012  1501          TAD I X+WRALST  /GET WORD ONE
03013  7510          SPA
03014  5513          JMP I X+WR3
03015  1110          TAD X+WR0
03016  0375          AND (70         /FORM CDF AND PUT IN WR0
03017  1374          TAD (CDF
03020  3110          DCA X+WR0
03021  1501          TAD I X+WRALST  /GET BASE ADDRESS
03022  0373          AND (7  /FIRST, GET BASE REG NUMBER
03023  7450          SNA             /IF ITS ZERO, BASE ADDRESS IS ZERO
03024  5237          JMP VRADL1
03025  1372          TAD (-1         /OFFSET FROM CURRENT WREG. FRAME?
03026  7440          SZA
03027  5232          JMP .+3
03030  1003          TAD PWREGS

/PROCESSOR MANAGEMENT AND INPUT   PAL8-V7  1/31/77   PAGE 33-1

03031  5237          JMP VRADL1
03032  1371          TAD (TAD X-1    /FORM TAD X+ INSTRUCTION
03033  6002          IOF             /LOCK
03034  3235          DCA .+1
03035  7000          NOP             /GET BASE ADDRESS
03036  6005          PION            /UNLOCK
03037  2101  VRADL1, ISZ X+WRALST
03040  1501          TAD I X+WRALST  /ADD OFFSET
03041  2101          ISZ X+WRALST
03042  3111          DCA X+WR1
03043  1110          TAD X+WR0       /CHANGE TO DATA FIELD OF ARGUMENT
03044  6002          IOF
03045  3246          DCA .+1
03046  7000          NOP
03047  6005          PION
03050  1511          TAD I X+WR1
03051  3112          DCA X+WR2
03052  2113          ISZ X+WR3
03053  5513          JMP I X+WR3

/PROCESSOR MANAGEMENT AND INPUT   PAL8-V7  1/31/77   PAGE 34

             /WORKING REGISTERS FOR READ AND WRITE
       3054  RSTAD1=.
03171  1077
03172  7777
03173  0007
03174  6201
03175  0070
03176  0700
03177  3200
       0014          *WR
                     NOPUNCH
             /LINKAGE WORDS
00014  0000  RWLK1,  0
00015  0000  RWLK2,  0
00016  0000  RWLK3,  0

             /CHARACTER IN/OUT POINTERS
00017  0000  RWCIN,  0       /ADDRESS OF CHIN OR ^O ROUTINE
00020  0000  RWCOUT, 0       /ADDRESS OF CHOUT OR ECHO ROUTINE

             /6-BIT STRING HANDLING STUFF
00021  0000  RWSTB,  0       /STRING BASE ADDRESS
00022  0000  RWSTO,  0       /CHARACTER OFFSET

             /INPUT CONVERSION
00023  0000  CVCHAR, 0       /CHARACTER HELD HERE
00024  0000  CVNUM,  0       /NUMBER CONVERTED HERE

             RWWR,
             /REGISTERS FOR WRITE ONLY
             /FORMAT STRING STUFF
00025  0000  FMTRC,  0       /REPEAT COUNTER
00026  0000  FMTRO,  0       /REPEAT OFFSET
00027  0000  FMTPC,  0       /() REPEAT COUNTER
00030  0000  FMTPO,  0       /() OFFSET

             /VARIABLE LIST STUFF
00031  0000  WRVDF,  0       /62N1
00032  0000  WRVAD,  0       /CURRENT VAIRABLE ADDRESS
00033  0000  WRVCT,  0       /VARIABLE REPEAT COUNT
00034  0000  WRVAR,  0       /VALUE

             /OUTPUT FORMAT
00035  0000  FILL,   0       /FILL CHARACTER
00036  0000  FORMN,  0       /# OF CHARACTERS
00037  0000  TYDCT,  0       /COUNTER FOR TYDEC
00040  0000  TYDPTR, 0       /POINTER FOR TYDEC
             WRWR,

       0025          *RWWR
             /REGISTERS FOR READ ONLY
00025  0000  TBPTR,  0       /TOKEN BUFFER POINTER
00026  0000  OPTAB,  0       /POINTER TO OPERATOR TABLE
00027  0000  OPBUF,  ZBLOCK 6        /HOLDS OPERATOR BEING WORKED ON
00035  0000  RDFLG,  0       /FLAG FOR MINUS SIGN

/PROCESSOR MANAGEMENT AND INPUT   PAL8-V7  1/31/77   PAGE 34-1

00036  0000  RDBUF,  ZBLOCK 4        /72-CHAR BUFFER
             RDWR,
                     ENPUNCH
       3054          *RSTAD1

/PROCESSOR MANAGEMENT AND INPUT   PAL8-V7  1/31/77   PAGE 35

             /READ ROUTINE. ENTERED BY SVC CALL MECHANISM
             /ARG 1 - INPUT UNIT NUMBER
             /    2 - ECHO UNIT NUMBER
             /    3 - POINTER TO OPERATOR TABLE
             /    4 - POINTER TO TOKEN BUFFER
03054  0102  READ,   RDWR            /NUMBER OF WREGS. NEEDED.
03055  6666          SXM 60 XCLA
03056  6002          IOF             /PICK UP ARGUMENTS
03057  4200          JMS VARAD       /FETCH INPUT UNIT NUMBER
03060  7200          CLA
03061  1112          TAD X+WR        /DO TABLE LOOKUP
03062  1370          TAD (CHITAB
03063  3117          DCA X+RWCIN
03064  6201          CDF
03065  1517          TAD I X+RWCIN
03066  3117          DCA X+RWCIN
03067  6002          IOF             /FETCH ECHO UNIT NUMBER
03070  4200          JMS VARAD
03071  7200          CLA
03072  1112          TAD X+WR2
03073  1367          TAD (CHOTAB
03074  3120          DCA X+RWCOUT
03075  6201          CDF
03076  1520          TAD I X+RWCOUT
03077  3120          DCA X+RWCOUT
03100  6002          IOF             /FETCH POINTER TO OPERATOR TABLE
03101  4200          JMS VARAD
03102  7200          CLA
03103  1111          TAD X+WR1
03104  3126          DCA X+OPTAB
03105  6002          IOF             /FETCH POINTER TO TOKEN BUFFER
03106  4200          JMS VARAD
03107  7200          CLA
03110  1111          TAD X+WR1
03111  3125          DCA X+TBPTR
03112  1003  READL1, TAD PWREGS      /SET UP INPUT STRING BASE ADDRESS
03113  1366          TAD (RDBUF
03114  3121          DCA X+RWSTB
03115  6002          IOF             /READ FIRST RECORD
03116  4765'         JMS RDREC
03117  3122          DCA X+RWSTO
03120  3135          DCA X+RDFLG
03121  5764'         JMP RDPRC

/PROCESSOR MANAGEMENT AND INPUT   PAL8-V7  1/31/77   PAGE 36

             /WRITE ROUTINE. ENTERED BY SVC CALL MECHANISM
             /ARG 1 - OUTPUT UNIT NUMBER
             /    2 - CNTRL/O UNIT NUMBER
             /    3 - POINTER TO FORMAT STRING
             /    4-N - VARIABLE LIST, TERMINATED BY 4000 OCTAL
             /IF CONTROL 0 IS DETECTED, WRITE TAKES THE NON-SKIP RETURN WITH
             /THE AC=1 (PRINTOUT STOPS IMMEDIATELY)
03122  0041  WRITE,  WRWR
03123  6666          SXM 60 XCLA
03124  6002          IOF             /FETCH OUTPUT UNIT NUMBER
03125  4200          JMS VARAD
03126  7200          CLA
03127  1112          TAD X+WR        /DO TABLE LOOKUP
03130  1367          TAD (CHOTAB
03131  3120          DCA X+RWCOUT
03132  6201          CDF
03133  1520          TAD I X+RWCOUT
03134  3120          DCA X+RWCOUT
03135  6002          IOF             /FETCH CTRL/O UNIT NUMBER
03136  4200          JMS VARAD
03137  7200          CLA
03140  1112          TAD X+WR2
03141  1363          TAD (CTOTAB
03142  3117          DCA X+RWCIN
03143  6201          CDF
03144  1517          TAD I X+RWCIN
03145  3117          DCA X+RWCIN
03146  6002          IOF             /FETCH POINTER TO FORMAT
03147  4200          JMS VARAD
03150  7200          CLA
03151  1111          TAD X+WR1
03152  3121          DCA X+RWSTB
03153  1362          TAD (240        /SET FILL TO SPACE
03154  3135          DCA X+FILL
03155  5761'         JMP WRPRC

/PROCESSOR MANAGEMENT AND INPUT   PAL8-V7  1/31/77   PAGE 37

03161  3210
03162  0240
03163  3341
03164  4466
03165  3400
03166  0036
03167  3334
03170  3311
       3200          *3200
             /CHANGE TO DATA FIELD OF ARGUMENT LIST
03200  0000  ARGCDF, 0
03201  1107          TAD X+WRMF
03202  0377          AND (70
03203  1376          TAD (CDF
03204  3205          DCA .+1
03205  7000          NOP
03206  6005          PION
03207  5600          JMP I ARGCDF

/PROCESSOR MANAGEMENT AND INPUT   PAL8-V7  1/31/77   PAGE 38
