/PROCESSOR MANAGEMENT AND INPUT   PAL8-V7  1/31/77   PAGE 19

01363  1641
01364  1343
01365  1327
01366  0462
01367  1600
01370  1323
01371  0355
01372  0354
01373  0010
01374  1100
01375  0270
01376  1000
01377  6777
       1400          *1400
01400  0000  AFOC,   0       /POINTER TO PREVIOUS CELL WHEN DOING CHAIN OPERATIONS.

             /SERVICE ROUTINES FOR ALOC AND FREE

             /ADVANCE DOWN CHAIN, SKIP IF NO END
             /ENTER: AC=0,DF=AREA DF, EXIT: AC=0,X->CURRENT CELL,XM=7
01401  0000  AFADV,  0
01402  1030          TAD AFCC
01403  3200          DCA AFOC
01404  1430          TAD I AFCC
01405  6673          LDX SXM 70
01406  7440          SZA
01407  2201          ISZ AFADV
01410  3030          DCA AFCC
01411  5601          JMP I AFADV

             /DELETE CURRENT CELL FROM CHAIN, SAVE POINTER TO THAT CELL IN X
             /ENTER: AC=0,DF=AREA DF, EXIT: AC=0,X->DELETED CELL,XM=7
01412  0000  AFDLT,  0
01413  1030          TAD AFCC
01414  6677          LDXC SXM 70
01415  1200          TAD AFOC
01416  3030          DCA AFCC
01417  1100          TAD X
01420  3600          DCA I AFOC
01421  5612          JMP I AFDLT

             /INSERT CELL POINTED TO BY AFSC BEFORE THE CURRENT CELL
             /ENTER: AC=0,DF=AREA DF; EXIT: AC=0, AFCC INVALID
01422  0000  AFINS,  0
01423  1025          TAD AFSC
01424  3600          DCA I AFOC
01425  1030          TAD AFCC
01426  3425          DCA I AFSC
01427  5622          JMP I AFINS

             /MOVE DOWN CHAIN UNTIL SIZE OF CURRENT CELL >= -AFSIZE(SKIP), OF
             /END OF CHAIN (NO SKIP)
             /ENTERY: AC=0, DF=AREA DF; EXIT: AC=0
01430  0000  AFSCH,  0
01431  1027          TAD AFAREA

/PROCESSOR MANAGEMENT AND INPUT   PAL8-V7  1/31/77   PAGE 19-1

01432  3030          DCA AFCC
01433  4201  AFSL1,  JMS AFADV
01434  5630          JMP I AFSCH
01435  1101          TAD X+1
01436  1026          TAD AFSIZE
01437  7710          SPA CLA
01440  5233          JMP AFSL1
01441  2230          ISZ AFSCH
01442  5630          JMP I AFSCH

             /PUSH CELL POINTED TO BY AFSC ON CHAIN IN PROPER PLACE
             /ENTER AC=0,DF=AREA DF; EXIT: AC=0, AFCC INVALID
01443  0000  AFPUT,  0
01444  4230          JMS AFSCH
01445  7000          NOP
01446  4222          JMS AFINS
01447  5643          JMP I AFPUT

             /CHANGE TO DATA FIELD OF BASED AREA
01450  0000  AFCDF,  0
01451  7000          NOP             /CDF PUT HERE
01452  5650          JMP I AFCDF

/PROCESSOR MANAGEMENT AND INPUT   PAL8-V7  1/31/77   PAGE 20

             /PICK UP ARGUMENTS FOR ALOC,FREE,BSINIT
             /SVCARG -> 62N1  DATA FIELD OF BASED AREA
             /          ADDRESS OF BASED AREA
             /          POINTER (ALOC/FREE) OF SIZE (BSINIT)
             /          LENGTH (FOR ALOC)
             / EXIT WITH XM=7, DF=AREA DF
             /
01453  0000  AFARG,  0
01454  1024          TAD SVCARG      /PUT POINTER TO ARG LIST IN X
01455  6677          LDXC SXM 70
01456  4777'         JMS SVCDF
01457  1100          TAD X
01460  3251          DCA AFCDF+1
01461  1101          TAD X+1
01462  3027          DCA AFAREA
01463  1102          TAD X+2
01464  3025          DCA AFSC
01465  1103          TAD X+3         /HACK LENGTH FOR ALOC
01466  7050          CMA RAR
01467  7104          CLL RAL
01470  3026          DCA AFSIZE
01471  4250          JMS AFCDF
01472  5653          JMP I AFARG

             /INITIALIZE A BASED STORAGE AREA
01473  0000  BSINIT, 0
01474  4253          JMS AFARG       /PICK UP ARGUMENTS
01475  1027          TAD AFAREA      /GET POINTER TO AREA
01476  6673          LDX SXM 70
01477  7001          IAC             /MAKE ONE BIG FREE PARTITION
01500  3100          DCA X           /SET FREE POINTER
01501  3101          DCA X+1
01502  7240          STA
01503  1025          TAD AFSC
01504  7010          RAR
01505  7104          CLL RAL
01506  3102          DCA X+2
01507  5673          JMP I BSINIT

/PROCESSOR MANAGEMENT AND INPUT   PAL8-V7  1/31/77   PAGE 21

01577  0354
       1600          *1600
             /ALLOCATE PARTITION. SKIP IF OK
01600  0000  ALOC,   0
01601  4777'         JMS AFARG       /PICK UP ARGUMENTS
01602  4776'         JMS AFSCH       /SEARCH FOR BEST FIT PARTITION
01603  5600          JMP I ALOC      /NONE, NON-SKIP RETURN
01604  4775'         JMP AFDLT       /DELETE PARTITION
01605  1026          TAD AFSIZE      /INSERT SIZE OF NEW PARTITION
01606  7041          CIA
01607  3100          DCA X
01610  1026          TAD AFSIZE      /EXACT FIT?
01611  1101          TAD X+1
01612  7450          SNA
01613  5236          JMP ALSKP       /YES, GO TO SKIP RETURN
01614  3026          DCA AFSIZE      /NO, BREAK UP PARTITION. AFSIZE IS LENGTH
01615  6072          RDX             /OF NEW FREE PARTITION
01616  7421          MQL             /SAVE POINTER TO PARTITION IN THE MQ
01617  7501          MQA
01620  1100          TAD X
01621  6601          LDX
01622  3025          DCA AFSC
01623  1026          TAD AFSIZE
01624  3101          DCA X+1
01625  4774'         JMS AFPUT       /RETURN PARTITION TO FREE LIST
01626  1024  ALRET,  TAD SVCARG      /RETURN POINTER
01627  6605          LDXC
01630  4773'         JMS SVCDF
01631  7501          MQA
01632  7001          IAC
01633  3102          DCA X+2
01634  2200          ISZ ALOC
01635  5600          JMP I ALOC
01636  6072  ALSKP,  RDX
01637  7421          MQL
01640  5226          JMP ALRET

/PROCESSOR MANAGEMENT AND INPUT   PAL8-V7  1/31/77   PAGE 22

             /FREE PARTITION
01641  0000  FREE,   0
01642  4777'         JMS AFARG       /PICK UP ARGUMENTS
01643  7240          STA             /FIRST GET THE REAUL POINTER TO THE PARTITION
01644  1025          TAD AFSC
01645  6673          LDX SXM 70
01646  3025          DCA AFSC
01647  1100          TAD X           /GET THE LENGTH OF THE PARTITION
01650  3026          DCA AFSIZE
01651  1025          TAD AFSC        /SET UP UPPER VALUE
01652  7041          CIA
01653  3317          DCA FRLOW
01654  1025          TAD AFSC        /SET UP UPPER VALUE
01655  1026          TAD AFSIZE
01656  7041          CIA
01657  3320          DCA FRHIGH

             /SCAN FREE LIST AND COMBINE ADJACENT PARTITIONS
01660  1027          TAD AFAREA
01661  3030          DCA AFCC
01662  4772' FRL1,   JMS AFADV       /ADVANCE
01663  5306          JMP FRL2        /END OF LIST
01664  6072          RDX             /IS IT BELOW?
01665  1101          TAD X+1
01666  1317          TAD FRLOW
01667  7640          SZA CLA
01670  5300          JMP FRL3
01671  4775'         JMS AFDLT       /YES, COMBINE
01672  6072          RDX
01673  3025          DCA AFSC
01674  1101  FRL4,   TAD X+1         /UPDATE THE SIZE OF THE PARTITION BEING FREED
01675  1026          TAD AFSIZE
01676  3026          DCA AFSIZE
01677  5262          JMP FRL1
01700  6072  FRL3,   RDX             /IS IT ABOVE?
01701  1320          TAD FRHIGH
01702  7640          SZA CLA
01703  5262          JMP FRL1
01704  4775'         JMS AFDLT
01705  5274          JMP FRL4

             /DONE COMBINING, PUT PARTITION ON FREE LIST
01706  1025  FRL2,   TAD AFSC
01707  6605          LDXC
01710  1026          TAD AFSIZE
01711  3101          DCA X+1
01712  1026          TAD AFSIZE
01713  7041          CIA
01714  3026          DCA AFSIZE
01715  4774'         JMS AFPUT
01716  5641          JMP I FREE
01717  0000  FRLOW,  0
01720  0000  FRHIGH, 0

/PROCESSOR MANAGEMENT AND INPUT   PAL8-V7  1/31/77   PAGE 23

01772  1401
01773  0354
01774  1443
01775  1412
01776  1430
01777  1453
       2000          *2000
             /THIS ROUTINE IS THE INITIAL ENTRY POINT FOR THE ENTIRE SYSTEM.
             /IT INITIALIZES ALL FO THE I/O BUFFERS AND OTHER APPROPRIATE
             /VARIABLES, AND THEN CREATES THE FIRST PROCESS AND ENTERS THE
             /TRAFFIC CONTROLLER.
02000  1377  STRTUP, TAD (STTAB-1    /READ FROM STTAB TO INITIALIZE EVERYTHING
02001  3017          DCA 17
02002  1417  STL1,   TAD I 17        /GET ADDRESS
02003  7450          SNA
02004  5212          JMP STL2        /END OF TABLE
02005  3211          DCA STADDR
02006  1417          TAD I 17        /GET DATA
02007  3611          DCA I STADDR
02010  5202          JMP STL1
02011  0000  STADDR, 0
02012  7000  STL2,   NOP             /OR HALT FOR TESTING
02013  4776'         JMS BSINIT      /INITIALIZE SYSTEM BASED STORAGE. SVCARG,
                                     /SVCDF SUPPLIED BY ABOVE LOOP.
02014  1375          TAD (STFRK      /CALL FORK TO CREATE FIRST PROCESS
02015  3024          DCA SVCARG
02016  4774'         JMS FORK
02017  7402          HLT             /HALT IF NOT OK.
02020  5773'         JMP TC
02021  6201  STBSIN, CDF             /ARG LIST FOR CALL TO BSINIT
02022  7000          SYSBS
02023  0600          SBSSIZ
02024  0200  STFRK,  0200            /ARG LIST FOR CALL TO FORK
02025  0011          0011
02026  0400          400

/PROCESSOR MANAGEMENT AND INPUT   PAL8-V7  1/31/77   PAGE 24

             /SVC ROUTINE FOR CHARACTER OUTPUT
             /SVCARG -> BSC, CHAR IN ISVAC. SKIP IF CHARACTER SHOULD NOT
             /BE TYPED (PUNCHED)
02027  0000  CHOUT,  0
02030  1024          TAD SVCARG      /PUT POINTER TO BSC IN X
02031  6667          LDXC SXM 60
02032  7340          STA CLL         /DECREMENT INTEGER
02033  1104          TAD X+4
02034  3104          DCA X+4
02035  7420          SNL             /IF LINK = 0, RESULT WAS -1 AND CHARACTER
02036  5627          JMP I CHOUT     /SHOULD BE TYPED INSTED OF PUT IN THE BUFFER
02037  1772'         TAD ISVAC
02040  4771'         JMS SWRING
02041  2227          ISZ CHOUT
02042  5627          JMP I CHOUT

             /SVC ROUTINE FOR CHARACTER INPUT
             /SVCARG -> BSC, RETURN CHARACTER TO ISVAC
02043  0000  CHIN,   0
02044  1024          TAD SVCARG
02045  6667          LDXC SXM 60
02046  4770'         JMS SRRING      /READNEXT CHAR
02047  3772'         DCA ISVAC
02050  7240          STA             /DECREMENT INTEGER
02051  1104          TAD X+4
02052  3104          DCA X+4
02053  5643          JMP I CHIN

/PROCESSOR MANAGEMENT AND INPUT   PAL8-V7  1/31/77   PAGE 25

             /CHARACTER OUTPUT ROUTINES. NOT RE-ENTRENT.

             /PUNCH ONE CHARACTER
02054  0000  PUNCH,  0
02055  6005          PION
02056  6571          SVC             /P ON THE SEMAPHORE
02057  1200          P
02060  2327          PTPSEM
02061  6571          SVC             /WRITE CHAR INTO BUFFER
02062  2027          CHOUT
02063  2331          PTPBSC
02064  6026          PLS             /PUNCH IF NECESSARY
02065  7200          CLA
02066  5654          JMP I PUNCH

             /TYPE ONE CHARACTER (TTY1)
02067  0000  TYPE1,  0
02070  6005          PION
02071  7450          SNA
02072  5667          JMP I TYPE1
02073  6571          SVC
02074  1200          P
02075  2336          TP1SEM
02076  6571          SVC
02077  2027          CHOUT
02100  2340          TP1BSC
02101  6046          TLS
02102  1367          TAD (-212       /IMPLEMENT LF COUNTER
02103  7650          SNA CLA
02104  2035          ISZ LFCT1
02105  7000          NOP
02106  5667          JMP I TYPE1

             /TYPE ONE CHARACTER (TTY2)
02107  0000  TYPE2,  0
02110  6005          PION
02111  6571          SVC
02112  1200          P
02113  2345          TP2SEM
02114  6571          SVC
02115  2027          CHOUT
02116  2347          TP2BSC
02117  6146          T2LS
02120  1367          TAD (-212       /IMPLEMENT LF COUNTER
02121  7650          SNA CLA
02122  2036          ISZ LFCT2
02123  7000          NOP
02124  5707          JMP I TYPE2

/PROCESSOR MANAGEMENT AND INPUT   PAL8-V7  1/31/77   PAGE 26

             /CHARACTER INPUT ROUTINES. NO RE-ENTRENT

             /READ ONE CHARACTER FROM TTY1
02125  0000  RD11,   0
02126  6005          PION
02127  6571          SVC
02130  1200          P
02131  2361          KB1SEM
02132  6571          SVC
02133  2043          CHIN
02134  2354          KB1BSC
02135  5725          JMP I RD11

             /READ ONE CHARACTER FROM TTY2
02136  0000  RD12,   0
02137  6005          PION
02140  6571          SVC
02141  1200          P
02142  2370          KB2SEM
02143  6571          SVC
02144  2043          CHIN
02145  2363          KB2BSC
02146  5736          JMP I RD12

/PROCESSOR MANAGEMENT AND INPUT   PAL8-V7  1/31/77   PAGE 27

02167  7566
02170  0734
02171  0722
02172  0462
02173  0400
02174  1252
02175  2024
02176  1473
02177  2177
       2200          *2200
             /TABLE FOR STRTUP
02200  0024  STTAB,  SVCARG; STBSIN  /FOR THE CALL TO BSINIT
02201  2021
02202  0355          SVCDF+1; CDF
02203  6201
02204  0462          ISVAC; 0
02205  0000
02206  2327          PTPSEM; PTPSIZ  /PUNCH OUTPUT BUFFER
02207  0024
02210  2330          PTPSEM+1; 0
02211  0000
02212  2333          PTPSEM+2; PTPBUF+PTPSIZ-1
02213  2423
02214  2334          PTPBSC+3; PTPBUF
02215  2400
02216  2335          PDPBSC+4; 0
02217  0000
02220  2336          TP1SEM; TP1SIZ  /TTY1 OUTPUT BUFFER
02221  0024
02222  2337          TP1SEM+1; 0
02223  0000
02224  2342          TP1BSC+2; TP1BUF+TP1SIZ-1
02225  2447
02226  2343          TP1BSC+3; TP1BUF
02227  2424
02230  2344          TP1BSC+4; 0
02231  0000
02232  2345          TP2SEM; TP2SIZ  /TTY2 OUTPUT BUFFER
02233  0024
02234  2346          TP2SEM+1; 0
02235  0000
02236  2351          TP2BSC+2; TP2BUF+TP2SIZ-1
02237  2473
02240  2352          TP2BSC+3; TP2BUF
02241  2450
02242  2353          TP2BSC+4; 0
02243  0000
02244  2361          KB1SEM; 0       /TTY1 INPUT BUFFER
02245  0000
02246  2362          KB1SEM+1; 0
02247  0000
02250  2356          KB1BSC+2; KB1BUF+KB1SIZ-1
02251  2517
02252  2357          KB1BSC+3; KB1BUF
02253  2474

/PROCESSOR MANAGEMENT AND INPUT   PAL8-V7  1/31/77   PAGE 27-1

02254  2360          KB1BSC+4; -KB1SIZ-1
02255  7753
02256  2370          KB2SEM; 0       /TTY2 INPUT BUFFER
02257  0000
02260  2371          KB2SEM+1; 0
02261  0000          0
02262  2365          KB2BSC+2; KB2BUF+KB2SIZ-1
02263  2543
