/PROCESSOR MANAGEMENT AND INPUT   PAL8-V7  1/31/77   PAGE 1

             /PROCESSOR MANAGEMENT AND INPUT/OUTPUT SYSTEM
                     IFDEF KPMIO <XLIST>

             /PAGE 1 - EXTENDED SYMBOLS

             /EAE
       7405  MUY=7405
       7407  DVI=7407
       7411  NMI=7411
       7413  SHL=7413
       7501  MQA=7501
       7415  ASR=7415
       7417  LSR=7417
       7421  MQL=7421
       7441  SCA=7441
       7621  CAM=7621
       7403  SCL=7403
       7521  XAM=7521

             /MEMORY EXTENSION
       6201  CDF=6201
       6202  CIF=6202
       6214  RDF=6214
       6224  RIF=6224
       6244  RMF=6244
       6234  RIB=6234

             / A/D
       6531  ADSF=6531
       6532  ADCV=6532
       6534  ADRB=6534
       6541  ADCC=6541
       6542  ADSC=6542
       6544  ADIC=6544

             /SCOPE CONTROL
       6051  SCER=6051
       6052  SCLX=6052
       6054  SCIX=6054
       6056  SCLIX=6056
       6061  SCSE=6061
       6062  SCLY=6062
       6064  SCIY=6064
       6066  SCLIY=6066

       6360  ESR=6360        /EXTERNAL SWITCH REGISTER

             /TTY2
       6131  K2SF=6131
       6132  K2CC=6132
       6134  K2RS=6134
       6136  K2RB=6136
       6141  T2SF=6141
       6142  T2CF=6142
       6144  T2PC=6144

/PROCESSOR MANAGEMENT AND INPUT   PAL8-V7  1/31/77   PAGE 1-1

       6146  T2LS=6146

             /TTY MODE CONTROL
       6151  TTYR=6151
       6152  TTYC=6152
       6153  TTYN=6153

                     /INDEX REGISTER
       6601  LDX=6601
       6605  LDXC=6605
       6604  XCLA=6604
       6602  SXM=6602
       6071  ISX=6071
       6072  RDX=6072
       6074  RXM=6074
       0100  X=100

             /INTERVAL TIMER
       6171  LIT=6171
       6173  LITC=6173
       6174  SIT=6174

             /PRIORITY INTERRUPT DECODE
       6561  LDMSK=6561
       6562  RDMSK=6562
       6564  RDINT=6564
       6005  PION=6005

             /SUPERVISOR CALL INTERRUPT
       6571  SVC=6571
       6573  CLSVC=6573
       6572  XSVC=6572
       6574  TSVC=6574

             /SYMBOLS FOR HRP HARDWARE
       6110  INA=6110
       6120  DNS=6120
       6310  FRE=6310
       6320  SRA=6320
       6330  RVI=6330
       6370  CLK=6370
       6450  OSW=6450
       6350  INB=6350
       6400  TL1=6400
       6410  TL2=6410

             /WR66 INTERFACE
       6515  RL66=6515
       6514  RH66=6514
       6516  WL66=6516
       6517  WH66=6517

             /TI INTERFACE
       6161  TIR=6161
       6162  TIW=6162

/PROCESSOR MANAGEMENT AND INPUT   PAL8-V7  1/31/77   PAGE 2

             /SYMBOLS AND DATA STRUCTURES FOR PMIO SYSTEM

       7000  SYSBS=7000      /ADDRESS OF THE START OF THE SYSTEM BASED STORAGE AREAR
       0600  SBSSIZ=600      /SIZE OF THE SYSTEM BASED STORAGE AREA
       0111  SYSMSK=0111     /INITIAL SYSTEM MASK - DISABLE READER, NON-EXISTENT
                             /INTERRUPTS, AND CLOCK. CLOCK WILL BE ENABLED WHEN
                             /THE REAL TIME CLOCK GETS SET BY THE PROGRAM.

                     NOPUNCH
             /PROCESS CONTROL BLOCK
       0000          *0
00000  0000  PCBP1,  0       /POINTER TO NEXT
00001  0000  PCBPR,  0       /PRIORITY
00002  0000  PCBWR,  0       /POINTER TO THE WORKING REGISTER CHAIN
00003  0000  PCBPC,  0       /PC
00004  0000  PCBAC,  0       /AC
00005  0000  PCBMQ,  0       /MQ
00006  0000  PCBX,   0       /X
00007  0000  PCBLXM, 0       /B0=LINK, B1-6=0, B7-9=XMODE, B10-11=0
00010  0000  PCBMF,  0       /B0-5=0, B6-8=IF, B9-11=DF
             PCB,            /LENGTH OF PCB

             /SEMAPHORE
       0000          *0
00000  0000  SEMVAL, 0       /VALUE
00001  0000  SEMQ,   0       /QUEUE

             /WORKING REGISTERS
       0000          *0
00000  0000  WRFP,   0       /FORWARD POINTER
00001  0000  WRALST, 0       /POINTER TO ARGUMENT LIST
00002  0000  WRPC,   0       /SAVED REGISTERS: PC
00003  0000  WRAC,   0       /                 AC
00004  0000  WRMQ,   0       /                 MQ
00005  0000  WRX,    0       /                 X
00006  0000  WRLXM,  0       /                 LINK, XMODE
00007  0000  WRMF,   0       /                 MEMORY FIELDS
00010  0000  WR0,    0       /TEMPORARY REGISTERS
00011  0000  WR1,    0
00012  0000  WR2,    0
00013  0000  WR3,    0
             WR,             /SIZE OF WORKING REG. HEADER
                     ENPUNCH

/PROCESSOR MANAGEMENT AND INPUT   PAL8-V7  1/31/77   PAGE 3

             /PAGE 0 FIELD 0
       0000          *0
00000  0000  INTRPT, 0
00001  5602          5602    /JMP I .+1, MAKE SURE NO INDEXING OCCURS
00002  0200          INTHDL
00003  0000  PWREGS, 0       /POINTER TO WREG. CHAIN FOR RUNNING PROCESS
00004  0000  CCSW1,  0; 0    /CONTROL CHARACTER SWITCHES FOR TTY1
00005  0000
00006  0000  CCSW2,  0; 0    /CONTROL CHARACTER SWITCHES FOR TTY2
00007  0000

       0020          *20
00020  0000  RUN,    0       /POINTER TO RUNNING PCB
00021  0000  READY,  0       /POINTER TO LIST OF READY PCBS
00022  0000  MCOM,   0       /FOR DECTAPE INTERRUPT HANDLER
00023  0000  IMASK,  0       /SYSTEM INTERRUPT MASK
00024  0000  SVCARG, 0       /ADDRESS FOR SVC ARGUMENT PICKUP

             /VARIABLES FOR BASED STORAGE ROUTINES
00025  0000  AFSC,   0       /POINTER TO A SPECIAL CELL BEING WORKED ON
00026  0000  AFSIZE, 0       /+/- SIZE OF A PARTITION BEING WORKED ON
00027  0000  AFAREA, 0       /ADDRESS OF THE BASED STORAGE AREA BEING WORKED ON
00030  0000  AFCC,   0       /WHEN MOVING DOWN A CHAIN OF PARTITIONS, THIS POINTS
                             /TO THE CURRENT ONE

00031  0000  DTERR,  0       /DECTAPE STATUS B PUT HERE AFTER TAPE OPERATION

             /VARIABLES FOR SCOPE OUTPUT ROUTINE
00032  0000  HPOS,   0       /HORIZONTAL POSITION OF NEXT CHARACTER TO BE WRITTEN
00033  0000  VPOS,   0       /VERTICAL POSITION
00034  5711  SCWAIT, SCWPF   /POINTER TO SCOPE WAIT ROUTINE

             /LF COUNTERS FOR THE TTYS
00035  0000  LFCT1,  0
00036  0000  LFCT2,  0

00037  0000  SCFLG,  0       /=1 => SCOPE IN USE
00040  0000  MQD,    0       /DISPLAY IN MQ WHILE WAITING.

/PROCESSOR MANAGEMENT AND INPUT   PAL8-V7  1/31/77   PAGE 4

             /ENTRY INTO THE INTERRUPT HANDLER. THIS PAGE CONTAINS THE ENTRY INTO
             /AND EXIT FROM THE DECTAPE HANDLER.

       0200          *200
00200  6771  INTHDL, DTSF    /IS IT DECTAPE
00201  5226          JMP INTL1
00202  3223          DCA TSVAC       /YES, SAVE AC, L, XM
00203  6074          RXM
00204  7010          RAR
00205  3224          DCA TSVLXM
00206  6602          SXM             /SET XMODE TO 0
00207  5422          JMP I MCOM      /ENTER DECTAPE HANDLER

00210  1000  DTRET,  TAD 0           /RETURN FROM DECTAPE HANDLER
00211  3225          DCA TSVPC       /CAN'T JMP I 0 WITHOUT KNOWING XMODE
00212  1224          TAD TSVLXM      /RESTORE L, XM
00213  7104          CLL RAL
00214  1377          TAD (SXM
00215  3216          DCA .+1
00216  7000          NOP
00217  1223          TAD TSVAC       /RESTORE AC
00220  6244          RMF             /RESTORE IF AND DF
00221  6005          PION
00222  5625          JMP I TSVPC
00223  0000  TSVAC,  0
00224  0000  TSVLXM, 0
00225  0000  TSVPC,  0

/PROCESSOR MANAGEMENT AND INPUT   PAL8-V7  1/31/77   PAGE 5

             /NON - DECTAPE INTERRUPT HANDLER
00226  3776' INTL1,  DCA ISVAC       /SAVE AC, MEMORY FIELDS, PC
00227  6234          RIB
00230  3267          DCA ISVMF
00231  1000          TAD INTRPT
00232  3775'         DCA ISVPC
00233  6074          RXM
00234  7010          RAR
00235  3266          DCA ISVLXM
             /READ INTERRUPT ADDRESS. ADDRESS MUST BE READ
             /UNTIL TWO CONSECUTIVE READINGS MATCH
00236  6564  INTL2,  RDINT
00237  3263          DCA IHADDR
00240  6564          RDINT
00241  7041          CIA
00242  1263          TAD IHADDR
00243  7640          SZA CLA
00244  5236          JMP INTL2
00245  7240          STA             /MASK OFF ALL INTERRUPTS
00246  6561          LDMSK
00247  6005          PION            /TURN THE INTERRUPT SYSTEM BACK ON
00250  6072          RDX
00251  3265          DCA ISVX
00252  7501          MQA
00253  3264          DCA ISVMQ
00254  6602          SXM 0           /SET XMODE TO 0

             /ENTER INTERRUPT HANDLER.
00255  1263          TAD IHADDR      /TWO READINGS MATCH, LOOK UP HANDLER ADDRESS
00256  1374          TAD (IHTAB      /IN TABLE (IHTAB)
00257  3263          DCA IHADDR
00260  1663          TAD I IHADDR
00261  3263          DCA IHADDR
00262  5663          JMP I IHADDR
00263  0000  IHADDR, 0
       0257  ISVPCB=.-PCBMQ
00264  0000  ISVMQ,  0
00265  0000  ISVX,   0
00266  0000  ISVLXM, 0
00267  0000  ISVMF,  0

             /UPDATE PCB. ENTER WITH X->PCB, MODE 6
00270  0000  UPPCB,  0
00271  1775'         TAD ISVPC
00272  3103          DCA X+PCBPC
00273  1776'         TAD ISVAC
00274  3104          DCA X+PCBAC
00275  1264          TAD ISVMQ
00276  3105          DCA X+PCBMQ
00277  1266          TAD ISVLXM
00300  3107          DCA X+PCBLXM
00301  1265          TAD ISVX
00302  3106          DCA X+PCBX
00303  1267          TAD ISVMF
00304  3110          DCA X+PCBMF

/PROCESSOR MANAGEMENT AND INPUT   PAL8-V7  1/31/77   PAGE 5-1

00305  5670          JMP I UPPCB

/PROCESSOR MANAGEMENT AND INPUT   PAL8-V7  1/31/77   PAGE 6

             /INTERRUPT HANDLER TABLE
00306  0400  IHTAB,  TC      /0  NI INTERRUPT EXISTS
00307  5700          DTAHDL  /1  DECTAPE  (SOFTWARE)
00310  0755          ITMHDL  /2  INTERVAL TIMER
00311  1000          CLKHDL  /3  CLOCK
00312  0400          TC      /4
00313  0400          TC      /5
00314  0400          TC      /6
00315  0400          TC      /7
00316  0746          ITGHDL  /8  INTEGRATOR
00317  0614          TP2HDL  /9  TTY2 PRINTER
00320  0606          TP1HDL  /10 TTY1 PRINTER
00321  0600          PTPHDL  /11 PUNCH
00322  0637          KB1HDL  /12 TTY1 KEYBOARD
00323  0236          INTL2   /13 READER (NO HANDLER SUPPLIED FOR NOW)
00324  0660          KB2HDL  /14 TTY2 KEYBOARD
00325  0326          SVCHDL  /15 SUPERVISOR CALL

/PROCESSOR MANAGEMENT AND INPUT   PAL8-V7  1/31/77   PAGE 7

             /SUPERVISOR CALL HANDLER. SET UP SVCARG, SVCDF, ENTER APPROPRIATE
             /ROUTINE. HANDLE SKIP/NON-SKIP RETURNS FROM SVC ROUTINES.
00326  1775' SVCHDL, TAD ISVPC       /UPDATE ISVPC, GET ADDRESS OF ARGUMENTS
00327  6673          LDX SXM 70
00330  1373          TAD (2
00331  3775'         DCA ISVPC
00332  1267          TAD ISVMF       /CREATE A CDF TO THE IF OF THE SVC CALL, PUT
00333  0372          AND (70         /IT IN THE SVCDF ROUTINE
00334  1371          TAD (CDF
00335  3355          DCA SVCDF+1
00336  4354          JMS SVCDF
00337  1100          TAD X           /PICK UP SVC ARGS
00340  3353          DCA SVCAD
00341  1101          TAD X+1
00342  3024          DCA SVCARG
00343  6201          CDF             /EXECUTE SVC ROUTINE
00344  6602          SXM
00345  4753          JMS I SVCAD
00346  5351          JMP .+3         /HANDLE SKIP RETURN
00347  6201          CDF
00350  2775'         ISZ ISVPC
00351  6573          CLSVC           /CLEAR SVC FLAG
00352  5770'         JMP TC          /ENTER TRAFFIC CONTROLLER
00353  0000  SVCAD,  0

00354  0000  SVCDF,  0
00355  7000          NOP             /CDF PUT HERE
00356  5754          JMP I SVCDF

/PROCESSOR MANAGEMENT AND INPUT   PAL8-V7  1/31/77   PAGE 8

00370  0400
00371  6201
00372  0070
00373  0002
00374  0306
00375  0461
00376  0462
00377  6602
       0400          *400
             /TRAFFIC CONTROLLER. ON ENTRY, AC=0, XM=0,4,5,6,OR 7. IF RUNNING
             /PROCESS (IF ANY) HAS GREATER OR EQUAL PRIORITY THAN FIRST READY
             /PROCESS, CONTINUE IT. IF NOT, UPDATE RUNNING PCB AND SWITCH
             /PROCESSES, RESETTING THE INTERVAL TIMER.
00400  1021  TC,     TAD READY       /GET PRIOTITY OF FIRST READY PROCESS
00401  7450          SNA             /IN CASE NONE READY
00402  5210          JMP .+6
00403  6667          LDXC SXM 60
00404  1101          TAD X+PCBPR
00405  7415          ASR; 2          /MASK OFF NTQ BITS
00406  0002
00407  7041          CIA
00410  3260          DCA RDYPR
00411  1020          TAD RUN         /NOW GET RUNNING PROCESS PRIORITY
00412  7450          SNA             /IF NO RUNNING PCB, ENTER TCSW2
00413  5266          JMP TCSW2
00414  6605          LDXC
00415  1101          TAD X+PCBPR
00416  7415          ASR; 2
00417  0002
00420  1260          TAD RDYPR       /COMPARE PRIORITIES
00421  7710          SPA CLA
00422  5263          JMP TCSW

             /CONTINUE RUNNING PROCESS
00423  1377          TAD (ISVPCB
00424  6667          LDXC SXM 60
00425  1105  TCSTRT, TAD X+PCBMQ     /RESTORE MQ
00426  7421          MQL
00427  1110          TAD X+PCBMF     /RESTORE DF
00430  7006          RTL; RAL
00431  7004
00432  0376          AND (70
00433  1375          TAD (CDF
00434  3235          DCA .+1
00435  7000          NOP
00436  1110          TAD X+PCBMF     /RESTORE IF
00437  0376          AND (70
00440  1374          TAD (CIF
00441  3242          DCA .+1
00442  7000          NOP
00443  1107          TAD X+PCBLXM    /RESTORE LINK, SET UP LDXC SXM INSTRUCTION
00444  7104          CLL RAL
00445  1373          TAD (LDXC SXM
00446  3254          DCA .+6
00447  1023          TAD IMASK       /RESTORE INTERRUPT MASK

/PROCESSOR MANAGEMENT AND INPUT   PAL8-V7  1/31/77   PAGE 8-1

00450  6002          IOF
00451  6561          LDMSK
00452  7200          CLA
00453  1106          TAD X+PCBX      /RESTORE X, XMODE
00454  7000          NOP
00455  1262          TAD ISVAC       /RESTORE AC
00456  6005          PION
00457  5661          JMP I ISVPC
00460  0000  RDYPR,  0
00461  0000  ISVPC,  0               /THESE MUST BE ON THIS PAGE BECAUSE WE DON'T
00462  0000  ISVAC,  0               /KNOW THE XMODE WHEN THEY ARE REFERENCED ABOVE.

             /SWITCH PROCESSES
00463  4772' TCSW,   JMS UPPCB       /FIRST, UPDATE RUNNING PCB.
00464  4771'         JMS CHPCB       /PUT PCB ON READY LIST
00465  0021          READY
00466  1021  TCSW2,  TAD READY       /RUN FIRST PROCESS ON READY LIST
00467  7450          SNA
00470  5314          JMP NOWORK      /NOTHING TO BE DONE, WAIT
00471  6601          LDX             /PUT POINTER TO PCB TO BE RUN IN X AND IN RUN
00472  3020          DCA RUN
00473  1100          TAD X+PCBP1     /UPDATE READY
00474  3021          DCA READY
00475  1103          TAD X+PCBPC     /SET UP FOR ENTERING TCSTRT
00476  3261          DCA ISVPC
00477  1104          TAD X+PCBAC
00500  3262          DCA ISVAC
00501  1102          TAD X+PCBWR     /SET PWREGS
00502  3003          DCA PWREGS
00503  1101          TAD X+PCBPR
00504  0370          AND (7          /RESET INTERVAL TIMER. GET NUMBER OF TIME QUANTUMS
00505  7001          IAC
00506  7425          MQL MUY
00507  0063  TQ,     63              /SYSTEM TIME QUANTUM, APPROX. 50MS.
00510  7330          STL CLA RAR     /ENABLE TIMER INTERRUPT
00511  7501          MQA
00512  6173          LITC
00513  5225          JMP TCSTRT

             /NOTHING TO DO, WAIT WITH INTERRUPTS ON (EXCEPT INTERVAL TIMER)
00514  6173  NOWORK, LITC
00515  1023          TAD IMASK
00516  6561          LDMSK
00517  7200          CLA
00520  1040          TAD MQD
00521  7421          MQL
             /COMPUTE WAIT PERCENTAGE
00522  6002  WAITL,  IOF             /INCREMENT WTPCT EVERY 10 MS.
00523  2333          ISZ WTPCTL
00524  5330          JMP .+4
00525  2332          ISZ WTPCT
00526  1367          TAD (-2127
00527  3333          DCA WTPCTL
00530  6005          PION
00531  5322          JMP WAITL

/PROCESSOR MANAGEMENT AND INPUT   PAL8-V7  1/31/77   PAGE 8-2

00532  0000  WTPCT,  0
00533  0000  WTPCTL, 0

/PROCESSOR MANAGEMENT AND INPUT   PAL8-V7  1/31/77   PAGE 9

00567  5651
00570  0007
00571  1100
00572  0270
00573  6607
00574  6202
00575  6201
00576  0070
00577  0257
       0600          *600
             /HANDLERS FOR CHARACTER OUTPUT DEVICES

             /PUNCH
00600  6022  PTPHDL, PCF             /CLEAR FLAG
00601  4222          JMS CHOINT
00602  2327          PTPSEM
00603  6026          PLS             /PUNCH NEXT CHAR IF NECESSARY
00604  7200          CLA
00605  5777'         JMP TC

             /TTY1 PRINTER
00606  6042  TP1HDL, TCF             /CLEAR FLAG
00607  4222          JMS CHOINT
00610  2336          TP1SEM
00611  6046          TLS
00612  7200          CLA
00613  5777'         JMP TC

             /TTY2 PRINTER
00614  6142  TP2HDL, T2CF
00615  4222          JMS CHOINT
00616  2345          TP2SEM
00617  6146          T2LS
00620  7200          CLA
00621  5777'         JMP TC

             /INTERRUPT HANDLER FOR CHARACTER OUTPUT.
00622  0000  CHOINT, 0
00623  1622          TAD I CHOINT    /GET POINTER TO SEMAPHORE
00624  2222          ISZ CHOINT
00625  3024          DCA SVCARG      /SET UP SVCARG FOR CALL TO V
00626  4776'         JMS V           / V ON SEMAPHORE
00627  7105          CLL IAC RAL     /BSC FOLLOWS SEMAPHORE, GET BSC ADDRESS AND
00630  1024          TAD SVCARG      /PUT IN X
00631  6667          LDXC SXM 60
00632  2104          ISZ X+4         /INCREMENT INTEGER
00633  7410          SKP
00634  5777'         JMP TC          /=0 => DONE, ENTER TC
00635  4334          JMS SRRING      /<>0, READ NEXT CHAR FROM BUFFER, RETURN TO
00636  5622          JMP I CHOINT    /OUTPUT IT

/PROCESSOR MANAGEMENT AND INPUT   PAL8-V7  1/31/77   PAGE 10

             /HANDLERS FOR CHARACTER INPUT DEVICES

             /TTY1 KEYBOARD
00637  1375  KB1HDL, TAD (KB1BSC     /SET UP FOR TTY1
00640  6663          LDX SXM 60
00641  1374          TAD (5          /SEMAPHORE FOLLOWS BSC
00642  3024          DCA SVCARG
00643  6032          KCC
00644  1373          TAD (200
00645  6034          KRS
00646  4271          JMS CCHDL       /HANDLE CCSW
00647  0004          CCSW1
00650  2104  CHIINT, ISZ X+4         /INCREMENT INTEGER
00651  5255          JMP .+4
00652  7240          STA             /=0, SET TO -1 AND IGNORE CHARACTER
00653  3104          DCA X+4
00654  5777'         JMP TC
00655  4322          JMS SWRING      /<>0, WRITE CHARACTER INTO BUFFER, V ON
00656  4776'         JMS V           /SEMAPHORE
00657  5777'         JMP TC

             /TTY2 KEYBOARD
00660  1372  KB2HDL, TAD (KB2BSC     /SET UP FOR TTY2
00661  6663          LDX SXM 60
00662  1374          TAD (5
00663  3024          DCA SVCARG
00664  6132          K2CC
00665  1373          TAD (200
00666  6134          K2RS
00667  4271          JMS CCHDL       /HANDLE CCSW
00670  0006          CCSW2

             /HANDLE CONTROL CHARACTER SWITCHES
00671  0000  CCHDL,  0
00672  3321          DCA CCHSV       /SAVE CHARACTER
00673  1321          TAD CCHSV       /IS IT BETWEEN ^C AND ^Z?
00674  1371          TAD (-232
00675  7540          SMA SZA         /<=232?
00676  5316          JMP CCHEX
00677  1370          TAD (232-203
00700  7510          SPA             />=203?
00701  5316          JMP CCHEX
00702  7427          MQL DVI; 14     /YES, DECIDE WHICH BIT TO SET
00703  0014
00704  3312          DCA .+6         /NUMBER OF PLACES TO SHIFT
00705  7521          MQL MQA         /GET ADDRESS OF SWITCH WORD AND ZERO MQ
00706  1671          TAD I CCHDL
00707  3271          DCA CCHDL       /SAVE ADDRESS IN CCHDL
00710  7001          IAC
00711  7417          LSR; 0
00712  0000
00713  1671          TAD I CCHDL     /SET APPROPRIATE BIT
00714  7501          MQA
00715  3671          DCA I CCHDL
00716  7200  CCHEX,  CLA             /EXIT

/PROCESSOR MANAGEMENT AND INPUT   PAL8-V7  1/31/77   PAGE 10-1

00717  1321          TAD CCHSV
00720  5250          JMP CHIINT
00721  0000  CCHSV,  0

/PROCESSOR MANAGEMENT AND INPUT   PAL8-V7  1/31/77   PAGE 11

             /WRITE CHAR IN AC INTO RING BUFFER. ON ENTRY, XM=6, X->BSC
             /WRITE, THEN UPDATE BSC.
00722  0000  SWRING, 0
00723  3503          DCA I X+3       /PUT CHARACTER IN THE BUFFER
00724  2103          ISZ X+3         /UPDATE WRITE ADDRESS
00725  1103          TAD X+3         /IF END OF BUFFER, RESET WRITE ADDRESS
00726  1101          TAD X+1
00727  7640          SZA CLA
00730  5722          JMP I SWRING
00731  1100          TAD X
00732  3103          DCA X+3
00733  5722          JMP I SWRING

             /READ CHARACTER INTO AC FROM RING BUFFER. ON ENTRY, XM=6, X->BSC.
             /UPDATE, THEN READ
00734  0000  SRRING, 0
00735  2102          ISZ X+2 /UPDATE READ ADDRESS
00736  1102          TAD X+2         /IF END OF THE BUFFER, RESET READ ADDRESS
00737  1101          TAD X+1
00740  7640          SZA CLA
00741  5344          JMP .+3
00742  1100          TAD X
00743  3102          DCA X+2
00744  1502          TAD I X+2       /FETCH CHARACTER
00745  5734          JMP I SRRING

/PROCESSOR MANAGEMENT AND INPUT   PAL8-V7  1/31/77   PAGE 12

             /INTEGRATOR SERVICE ROUTINE. V ON ITGSEM
00746  6332  ITGHDL, RVI 2   /CLEAR FLAG
00747  1367          TAD (ITGSEM     /V ON SEMAPHORE
00750  3024          DCA SVCARG
00751  4776'         JMS V
00752  5777'         JMP TC
00753  0000  ITGSEM, 0; 0
00754  0000

             /TIMER SERVICE ROUTINE
00755  1020  ITMHDL, TAD RUN         /CLEAR I/0 BIT IN RUNNING PCB PRIORITY AND
00756  6667          LDXC SXM 60     /SWITCH PROCESSES
00757  1101          TAD X+PCBPR
00760  0366          AND (6777
00761  3101          DCA X+PCBPR
00762  5765'         JMP TCSW

/PROCESSOR MANAGEMENT AND INPUT   PAL8-V7  1/31/77   PAGE 13

00765  0463
00766  6777
00767  0753
00770  0027
00771  7546
00772  2363
00773  0200
00774  0005
00775  2354
00776  1226
00777  0400
       1000          *1000
             /CLOCK SERVICE ROUTINE. UPDATE REAL TIME CLOCK AND HANDLE THE FOUR
             /TIMERS.
01000  6372  CLKHDL, CLK 2           /CLEAR FLAG
01001  4777'         JMS DEBUG
01002  2254          ISZ CLK8        /UPDATE CLOCK
01003  5226          JMP CLKL1
01004  1776'         TAD WTPCT       /DISPLAY AND RESET WAIT PERCENTAGE.
01005  7427          MQL DVI; 12
01006  0012
01007  7521          MQL MQA
01010  7106          CLL RTL; RTL
01011  7006
01012  7501          MQA
01013  6452          OSW 2
01014  7200          CLA
01015  3776'         DCA WTPCT
01016  1375          TAD (-2127
01017  3774'         DCA WTPCTL
01020  1373          TAD (-10
01021  3254          DCA CLK8
01022  2255          ISZ CLKL
01023  5226          JMP CLKL1
01024  2256          ISZ CLKH
01025  7000          NOP
01026  1372  CLKL1,  TAD (-4         /LOOP 4 TIMES TO DO EACH TIMER
01027  3257          DCA CLKCNT      /INITIALIZE COUNT
01030  1371          TAD (ITM1       /POINTER TO FIRST TIMER
01031  6663  CLKL2,  LDX SXM 60
01032  3024          DCA SVCARG
01033  1102          TAD X+2         /IF MOD 8 COUNTER OF TIMER IS ZERO, TIMER
01034  7650          SNA CLA         /IS NOT IN USE, IGNORE IT
01035  5246          JMP CLKL3
01036  2102          ISZ X+2         /TIMER IN USE, UPDATE COUNT
01037  5246          JMP CLKL3
01040  1373          TAD (-10        /RESET MOD 8 COUNTER
01041  3102          DCA X+2
01042  2103          ISZ X+3
01043  5246          JMP CLKL3
01044  3102          DCA X+2         /TIME UP, CLEAR MOD 8 COUNTER, V ON SEMAPHORE
01045  4770'         JMS V
01046  7107  CLKL3,  CLL IAC RTL     /DO NEXT TIMER
01047  1024          TAD SVCARG
01050  2257          ISZ CLKCNT

/PROCESSOR MANAGEMENT AND INPUT   PAL8-V7  1/31/77   PAGE 13-1

01051  5231          JMP CLKL2
01052  7200          CLA
01053  5767'         JMP TC
01054  7770  CLK8,   -10
01055  0000  CLKL,   0
01056  0000  CLKH,   0
01057  0000  CLKCNT, 0
01060  0000  ITM1,   ZBLOCK 4
01064  0000  ITM2,   ZBLOCK 4
01070  0000  ITM3,   ZBLOCK 4
01074  0000  ITM4,   ZBLOCK 4

/PROCESSOR MANAGEMENT AND INPUT   PAL8-V7  1/31/77   PAGE 14

             /CHAIN PCB POINTED TO BY X ON TO LIST. ADDRESS OF POINTER TO LIST
             /FOLLOWS JMS CHPCB. ON ENTRY, AC=HQ(I.E. 0 OR 10)
01100  0000  CHPCB,  0
01101  1101          TAD X+PCBPR     /GET PRIORITY
01102  0373          AND (7770       /MASK NTQ BITS
01103  7041          CIA
01104  3342          DCA CHPR        /SAVE IT
01105  6072          RDX             /SAVE POINTER TO PCB TO BE CHAINED
01106  3343          DCA CHPTR
01107  1700          TAD I CHPCB     /GET ADDRESS OF LIST POINTER
01110  2300          ISZ CHPCB
01111  3344          DCA CHPL1       /SET UP FOR CHAIN OPERATIONS
01112  1744          TAD I CHPL1     /GET POINTER TO FIRST PCB ON CHAIN
01113  6601  CHPL2,  LDX
01114  7650          SNA CLA         /IS IT NULL?
01115  5327          JMP CHPL3
01116  1101          TAD X+PCBPR     /NO, TEST PRIORITY , CONTINUE DOWN CHAIN
01117  0373          AND (7770       /UNTIL A PCB IS FOUND WHOSE PRIORITY IS
01120  1342          TAD CHPR        /LESS THAN THE PRIORITY OF THE PCB BEING CHAINED
01121  7710          SPA CLA
01122  5327          JMP CHPL3
01123  6072          RDX             /NOT FOUND YET, ADVANCE
01124  3344          DCA CHPL1       /SAVE OLDX
01125  1100          TAD X+PCBP1     /GET NEW X
01126  5313          JMP CHPL2
01127  6072  CHPL3,  RDX             /INSERT PCB
01130  3345          DCA CHPL4
01131  1344          TAD CHPL1       /GET OLDX
01132  6605          LDXC
01133  1343          TAD CHPTR
01134  3100          DCA X+PCBP1
01135  1343          TAD CHPTR
01136  6605          LDXC
01137  1345          TAD CHPL4
01140  3100          DCA X+PCBP1
01141  5700          JMP I CHPCB
01142  0000  CHPR,   0
01143  0000  CHPTR,  0
01144  0000  CHPL1,  0
01145  0000  CHPL4,  0

/PROCESSOR MANAGEMENT AND INPUT   PAL8-V7  1/31/77   PAGE 15

01167  0400
01170  1226
01171  1060
01172  7774
01173  7770
01174  0533
01175  5651
01176  0532
01177  6200
       1200          *1200
             /P PRIMITIVE.
             /SVCARG -> SEMAPHORE. ALL SEMAPHORES ARE IN FIELD 0.
01200  0000  P,      0
01201  1024          TAD SVCARG      /ADDRESS OF SEMAPHORE -> X.
01202  6667          LDXC SXM 60
01203  7240          STA             /DECREMENT VALUE
01204  1100          TAD X+SEMVAL
01205  3100          DCA X+SEMVAL
01206  1100          TAD X+SEMVAL    /IS VALUE <0?
01207  7700          SMA CLA
01210  5600          JMP I P         /NO, RETURN
01211  6073          ISX RDX         /YES, PUT PCB ON QUEUE
01212  3223          DCA PSEMQ
01213  1020          TAD RUN
01214  6667          LDXC SXM 60
01215  1101          TAD X+PCBPR     /SET I/O BIT, IN PRIORITY
01216  0377          AND (6777
01217  1376          TAD (1000
01220  3101          DCA X+PCBPR
01221  4775'         JMS UPPCB       /UPDATE RUNNING PCB
01222  4774'         JMS CHPCB       /PUT PCB ON SEMAPHORE QUEUE
01223  0000  PSEMQ,  0
01224  3020          DCA RUN         /SET RUN TO NULL
01225  5600          JMP I P

/PROCESSOR MANAGEMENT AND INPUT   PAL8-V7  1/31/77   PAGE 16

             /V PRIMITIVE
             /SCVARG -> SEMAPHORE
01226  0000  V,      0
01227  1024          TAD SVCARG      /POINTER TO SEMAPHORE -> X
01230  6667          LDXC SXM 60
01231  2100          ISZ X+SEMVAL    /INCREMENT VALUE
01232  7410          SKP
01233  5237          JMP VL1         /VALUE  IS ZERO, WAKE UP
01234  1100          TAD X+SEMVAL
01235  7740          SMA SZA CLA     /TEST SEMVAL
01236  5626          JMP I V
01237  6073  VL1,    ISX RDX         /WAKE UP PROCESS
01240  3251          DCA VL2         /SAVE POINTER TO SEMQ
01241  1100          TAD X           /PUT POINTER TO FIRST PCB ON QUEUE IN X
01242  6605          LDXC
01243  1100          TAD X+PCBP1
01244  3651          DCA I VL2
01245  1373          TAD (10         /HQ=1
01246  4774'         JMS CHPCB       /PUT PCB ON READY LIST
01247  0021          READY
01250  5626          JMP I V
01251  0000  VL2,    0

/PROCESSOR MANAGEMENT AND INPUT   PAL8-V7  1/31/77   PAGE 17

             /CREATE PROCESS. SKIP IF OK.
             /SVCARG -> STARTING ADDRESS
             /          STARTINE MEMORY FIELDS
             /          PRIORITY
01252  0000  FORK,   0
01253  1024          TAD SVCARG      /GET ARGUMENTS:
01254  6677          LDXC SXM 70
01255  4772'         JMS SVCDF
01256  1100          TAD X           /GET STARTING ADDRESS
01257  3320          DCA FRKPC
01260  1101          TAD X+1         /MEMORY FIELDS
01261  3321          DCA FRKMF
01262  1102          TAD X+2         /PRIORITY
01263  3322          DCA FRKPR
01264  6201          CDF
01265  1264          TAD .-1         /ALLOCATE NEW PSC
01266  3771'         DCA SVCDF+1
01267  1370          TAD (FRKAL
01270  3024          DCA SVCARG
01271  4767'         JMS ALOC
01272  5652          JMP I FORK      /NON-SKIP RETURN
01273  1325          TAD FRKAL+2     /PUT POINTER TO NEW PSC IN X AND IN FRKSEM
01274  6663          LDX SXM 60
01275  3330          DCA FRKSEM+SEMQ
01276  3100          DCA X+PCBP1     /LOAD UP NEW PCB
01277  1322          TAD FRKPR       /PRIORITY
01300  3101          DCA X+PCBPR
01301  1320          TAD FRKPC       /PC
01302  3103          DCA X+PCBPC
01303  1766'         TAD ISVAC       /SAME AC
01304  3104          DCA X+PCBAC
01305  3107          DCA X+PCBLXM    /ZERO LINK, XM
01306  1321          TAD FRKMF
01307  3110          DCA X+PCBMF
01310  3102          DCA X+PCBWR     /ZERO WREG. CHAIN
01311  7240          STA             /SET UP VALUE OF FRKSEM
01312  3327          DCA FRKSEM+SEMVAL
01313  1365          TAD (FRKSEM     /V ON SEMAPHORE TO START PROCESS
01314  3024          DCA SVCARG
01315  4226          JMS V
01316  2252          ISZ FORK
01317  5652          JMP I FORK
01320  0000  FRKPC,  0
01321  0000  FRKMF,  0
01322  0000  FRKPR,  0
01323  6201  FRKAL,  CDF             /ARGUMENT LIST FOR CALL TO ALOC
01324  7000          SYSBS
01325  0000          0
01326  0011          PCB
01327  0000  FRKSEM, 0; 0
01330  0000

/PROCESSOR MANAGEMENT AND INPUT   PAL8-V7  1/31/77   PAGE 18

             /TERMINATE PROCESS
01331  0000  QUIT,   0
01332  1020          TAD RUN         /FREE CURRENT PCB
01333  3345          DCA QUFR+2
01334  1364          TAD (QUFR
01335  3024          DCA SVCARG
01336  1343          TAD QUFR
01337  3771'         DCA SVCDF+1
01340  4763'         JMS FREE
01341  3020          DCA RUN         /CLEAR RUN
01342  5731          JMP I QUIT
01343  6201  QUFR,   CDF             /ARGUMENT LIST FOR CALL TO FREE
01344  7000          SYSBS
01345  0000          0

/PROCESSOR MANAGEMENT AND INPUT   PAL8-V7  1/31/77   PAGE 19

01363  1641
01364  1343
01365  1327
01366  0462
01367  1600
01370  1323
01371  0355
01372  0354
01373  0010
01374  1100
01375  0270
01376  1000
01377  6777
       1400          *1400
01400  0000  AFOC,   0       /POINTER TO PREVIOUS CELL WHEN DOING CHAIN OPERATIONS.

             /SERVICE ROUTINES FOR ALOC AND FREE

             /ADVANCE DOWN CHAIN, SKIP IF NO END
             /ENTER: AC=0,DF=AREA DF, EXIT: AC=0,X->CURRENT CELL,XM=7
01401  0000  AFADV,  0
01402  1030          TAD AFCC
01403  3200          DCA AFOC
01404  1430          TAD I AFCC
01405  6673          LDX SXM 70
01406  7440          SZA
01407  2201          ISZ AFADV
01410  3030          DCA AFCC
01411  5601          JMP I AFADV

             /DELETE CURRENT CELL FROM CHAIN, SAVE POINTER TO THAT CELL IN X
             /ENTER: AC=0,DF=AREA DF, EXIT: AC=0,X->DELETED CELL,XM=7
01412  0000  AFDLT,  0
01413  1030          TAD AFCC
01414  6677          LDXC SXM 70
01415  1200          TAD AFOC
01416  3030          DCA AFCC
01417  1100          TAD X
01420  3600          DCA I AFOC
01421  5612          JMP I AFDLT

             /INSERT CELL POINTED TO BY AFSC BEFORE THE CURRENT CELL
             /ENTER: AC=0,DF=AREA DF; EXIT: AC=0, AFCC INVALID
01422  0000  AFINS,  0
01423  1025          TAD AFSC
01424  3600          DCA I AFOC
01425  1030          TAD AFCC
01426  3425          DCA I AFSC
01427  5622          JMP I AFINS

             /MOVE DOWN CHAIN UNTIL SIZE OF CURRENT CELL >= -AFSIZE(SKIP), OF
             /END OF CHAIN (NO SKIP)
             /ENTER: AC=0, DF=AREA DF; EXIT: AC=0
01430  0000  AFSCH,  0
01431  1027          TAD AFAREA

/PROCESSOR MANAGEMENT AND INPUT   PAL8-V7  1/31/77   PAGE 19-1

01432  3030          DCA AFCC
01433  4201  AFSL1,  JMS AFADV
01434  5630          JMP I AFSCH
01435  1101          TAD X+1
01436  1026          TAD AFSIZE
01437  7710          SPA CLA
01440  5233          JMP AFSL1
01441  2230          ISZ AFSCH
01442  5630          JMP I AFSCH

             /PUT CELL POINTED TO BY AFSC ON CHAIN IN PROPER PLACE
             /ENTER AC=0,DF=AREA DF; EXIT AC=0, AFCC INVALID
01443  0000  AFPUT,  0
01444  4230          JMS AFSCH
01445  7000          NOP
01446  4222          JMS AFINS
01447  5643          JMP I AFPUT

             /CHANGE TO DATA FIELD OF BASED AREA
01450  0000  AFCDF,  0
01451  7000          NOP             /CDF PUT HERE
01452  5650          JMP I AFCDF

/PROCESSOR MANAGEMENT AND INPUT   PAL8-V7  1/31/77   PAGE 20

             /PICK UP ARGUMENTS FOR ALOC,FREE,BSINIT
             /SVCARG -> 62N1  DATA FIELD OF BASED AREA
             /          ADDRESS OF BASED AREA
             /          POINTER (ALOC/FREE) OR SIZE (BSINIT)
             /          LENGTH (FOR ALOC)
             /EXIT WITH XM=7, DF=AREA DF
             /
01453  0000  AFARG,  0
01454  1024          TAD SVCARG      /PUT POINTER TO ARG LIST IN X
01455  6677          LDXC SXM 70
01456  4777'         JMS SVCDF
01457  1100          TAD X
01460  3251          DCA AFCDF+1
01461  1101          TAD X+1
01462  3027          DCA AFAREA
01463  1102          TAD X+2
01464  3025          DCA AFSC
01465  1103          TAD X+3         /HACK LENGTH FOR ALOC
01466  7050          CMA RAR
01467  7104          CLL RAL
01470  3026          DCA AFSIZE
01471  4250          JMS AFCDF
01472  5653          JMP I AFARG

             /INITIALIZE A BASED STORAGE AREA.
01473  0000  BSINIT, 0
01474  4253          JMS AFARG       /PICK UP ARGUMENTS
01475  1027          TAD AFAREA      /GET POINTER TO AREA
01476  6673          LDX SXM 70
01477  7001          IAC             /MAKE ONE BIG FREE PARTITION
01500  3100          DCA X           /SET FREE POINTER
01501  3101          DCA X+1
01502  7240          STA             /SET LENGTH OF FREE PARTITION
01503  1025          TAD AFSC
01504  7010          RAR
01505  7104          CLL RAL
01506  3102          DCA X+2
01507  5673          JMP I BSINIT

/PROCESSOR MANAGEMENT AND INPUT   PAL8-V7  1/31/77   PAGE 21

01577  0354
       1600          *1600
             /ALLOCATE PARTITION. SKIP IF OK.
01600  0000  ALOC,   0
01601  4777'         JMS AFARG       /PICK UP ARGUMENTS
01602  4776'         JMS AFSCH       /SEARCH FOR BEST FIT PARTITION
01603  5600          JMP I ALOC      /NONE, NON-SKIP RETURN
01604  4775'         JMS AFDLT       /DELETE PARTITION
01605  1026          TAD AFSIZE      /INSERT SIZE OF NEW PARTITION
01606  7041          CIA
01607  3100          DCA X
01610  1026          TAD AFSIZE      /EXACT FIT?
01611  1101          TAD X+1
01612  7450          SNA
01613  5236          JMP ALSKP       /YES, GO TO SKIP RETURN
01614  3026          DCA AFSIZE      /NO, BREAK UP PARTITION. AFSIZE IS LENGTH
01615  6072          RDX             /OF NEW FREE PARTITION
01616  7421          MQL             /SAVE POINTER TO PARTITION IN THE MQ
01617  7501          MQA
01620  1100          TAD X
01621  6601          LDX
01622  3025          DCA AFSC
01623  1026          TAD AFSIZE
01624  3101          DCA X+1
01625  4774'         JMS AFPUT       /RETURN PARTITION TO FREE LIST
01626  1024  ALRET,  TAD SVCARG      /RETURN POINTER
01627  6605          LDXC
01630  4773'         JMS SVCDF
01631  7501          MQA
01632  7001          IAC
01633  3102          DCA X+2
01634  2200          ISZ ALOC
01635  5600          JMP I ALOC
01636  6072  ALSKP,  RDX
01637  7421          MQL
01640  5226          JMP ALRET

/PROCESSOR MANAGEMENT AND INPUT   PAL8-V7  1/31/77   PAGE 22

             /FREE PARTITION
01641  0000  FREE,   0
01642  4777'         JMS AFARG       /PICK UP ARGUMENTS
01643  7240          STA             /FIRST GET THE REAL POINTER TO THE PARTITION
01644  1025          TAD AFSC
01645  6673          LDX SXM 70
01646  3025          DCA AFSC
01647  1100          TAD X           /GET THE LENGTH OF THE PARTITION
01650  3026          DCA AFSIZE
01651  1025          TAD AFSC        /SET UP LOWER VALUE
01652  7041          CIA
01653  3317          DCA FRLOW
01654  1025          TAD AFSC        /SET UP UPPER VALUE
01655  1026          TAD AFSIZE
01656  7041          CIA
01657  3320          DCA FRHIGH

             /SCAN FREE LIST AND COMBINE ADJACENT PARTITIONS
01660  1027          TAD AFAREA
01661  3030          DCA AFCC
01662  4772' FRL1,   JMS AFADV       /ADVANCE
01663  5306          JMP FRL2        /END OF LIST
01664  6072          RDX             /IS IT BELOW?
01665  1101          TAD X+1
01666  1317          TAD FRLOW
01667  7640          SZA CLA
01670  5300          JMP FRL3
01671  4775'         JMS AFDLT       /YES, COMBINE
01672  6072          RDX
01673  3025          DCA AFSC
01674  1101  FRL4,   TAD X+1         /UPDATE THE SIZE OF THE PARTITION BEING FREED
01675  1026          TAD AFSIZE
01676  3026          DCA AFSIZE
01677  5262          JMP FRL1
01700  6072  FRL3,   RDX             /IS IT ABOVE?
01701  1320          TAD FRHIGH
01702  7640          SZA CLA
01703  5262          JMP FRL1
01704  4775'         JMS AFDLT
01705  5274          JMP FRL4

             / DONE COMBINING, PUT PARTITION ON FREE LIST
01706  1025  FRL2,   TAD AFSC
01707  6605          LDXC
01710  1026          TAD AFSIZE
01711  3101          DCA X+1
01712  1026          TAD AFSIZE
01713  7041          CIA
01714  3026          DCA AFSIZE
01715  4774'         JMS AFPUT
01716  5641          JMP I FREE
01717  0000  FRLOW,  0
01720  0000  FRHIGH, 0

/PROCESSOR MANAGEMENT AND INPUT   PAL8-V7  1/31/77   PAGE 23

01772  1401
01773  0354
01774  1443
01775  1412
01776  1430
01777  1453
       2000          *2000
             /THIS ROUTINE IS THE INITIAL ENTRY POINT FOR THE ENTIRE SYSTEM.
             /IT INITIALIZES ALL OF THE I/O BUFFERS AND OTHER APPROPRIATE
             /VARIABLES, AND THEN CREATES THE FIRST PROCESS AND ENTERS THE
             /TRAFFIC CONTROLLER.
02000  1377  STRTUP, TAD (STTAB-1    /READ FROM STTAB TO INITIALIZE EVERYTHING
02001  3017          DCA 17
02002  1417  STL1,   TAD I 17        /GET ADDRESS
02003  7450          SNA
02004  5212          JMP STL2        /END OF TABLE
02005  3211          DCA STADDR
02006  1417          TAD I 17        /GET DATA
02007  3611          DCA I STADDR
02010  5202          JMP STL1
02011  0000  STADDR, 0
02012  7000  STL2,   NOP             /OR HALT FOR TESTING
02013  4776'         JMS BSINIT      /INITIALIZE SYSTEM BASED STORAGE. SVCARG,
                                     /SVCDF SUPPLIED BY ABOVE LOOP.
02014  1375          TAD (STFRK      /CALL FORK TO CREATE FIRST PROCESS
02015  3024          DCA SVCARG
02016  4774'         JMS FORK
02017  7402          HLT             /HALT IF NOT OK.
02020  5773'         JMP TC
02021  6201  STBSIN, CDF             /ARG LIST FOR CALL TO BSINIT
02022  7000          SYSBS
02023  0600          SBSSIZ
02024  0200  STFRK,  0200            /ARG LIST FOR CALL TO FORK
02025  0011          0011
02026  0400          400

/PROCESSOR MANAGEMENT AND INPUT   PAL8-V7  1/31/77   PAGE 24

             /SVC ROUTINE FOR CHARACTER OUTPUT
             /SVCARG -> BSC, CHAR IN ISVAC. SKIP IF CHARACTER SHOULD NOT
             /BE TYPED (PUNCHED).
02027  0000  CHOUT,  0
02030  1024          TAD SVCARG      /PUT POINTER TO BSC IN X
02031  6667          LDXC SXM 60
02032  7340          STA CLL         /DECREMENT INTEGER
02033  1104          TAD X+4
02034  3104          DCA X+4
02035  7420          SNL             /IF LINK = 0, RESULT WAS -1 AND CHARACTER
02036  5627          JMP I CHOUT     /SHOULD BE TYPED INSTED OF PUT IN THE BUFFER
02037  1772'         TAD ISVAC
02040  4771'         JMS SWRING
02041  2227          ISZ CHOUT
02042  5627          JMP I CHOUT

             /SVC ROUTINE FOR CHARACTER INPUT
             /SVCARG -> BSC, RETURN CHARACTER TO ISVAC
02043  0000  CHIN,   0
02044  1024          TAD SVCARG
02045  6667          LDXC SXM 60
02046  4770'         JMS SRRING      /READNEXT CHAR
02047  3772'         DCA ISVAC
02050  7240          STA             /DECREMENT INTEGER
02051  1104          TAD X+4
02052  3104          DCA X+4
02053  5643          JMP I CHIN

/PROCESSOR MANAGEMENT AND INPUT   PAL8-V7  1/31/77   PAGE 25

             /CHARACTER OUTPUT ROUTINES. NOT RE-ENTRENT.

             /PUNCH ONE CHARACTER
02054  0000  PUNCH,  0
02055  6005          PION
02056  6571          SVC             /P ON THE SEMAPHORE
02057  1200          P
02060  2327          PTPSEM
02061  6571          SVC             /WRITE CHAR INTO BUFFER
02062  2027          CHOUT
02063  2331          PTPBSC
02064  6026          PLS             /PUNCH IF NECESSARY
02065  7200          CLA
02066  5654          JMP I PUNCH

             /TYPE ONE CHARACTER (TTY1)
02067  0000  TYPE1,  0
02070  6005          PION
02071  7450          SNA
02072  5667          JMP I TYPE1
02073  6571          SVC
02074  1200          P
02075  2336          TP1SEM
02076  6571          SVC
02077  2027          CHOUT
02100  2340          TP1BSC
02101  6046          TLS
02102  1367          TAD (-212       /IMPLEMENT LF COUNTER
02103  7650          SNA CLA
02104  2035          ISZ LFCT1
02105  7000          NOP
02106  5667          JMP I TYPE1

             /TYPE ONE CHARACTER (TTY2)
02107  0000  TYPE2,  0
02110  6005          PION
02111  6571          SVC
02112  1200          P
02113  2345          TP2SEM
02114  6571          SVC
02115  2027          CHOUT
02116  2347          TP2BSC
02117  6146          T2LS
02120  1367          TAD (-212
02121  7650          SNA CLA
02122  2036          ISZ LFCT2
02123  7000          NOP
02124  5707          JMP I TYPE2

/PROCESSOR MANAGEMENT AND INPUT   PAL8-V7  1/31/77   PAGE 26

             /CHARACTER INPUT ROUTINES. NOT RE-ENTRENT

             /READ ONE CHARACTER FROM TTY1
02125  0000  RD11,   0
02126  6005          PION
02127  6571          SVC
02130  1200          P
02131  2361          KB1SEM
02132  6571          SVC
02133  2043          CHIN
02134  2354          KB1BSC
02135  5725          JMP I RD11

             /READ ONE CHARACTER FROM TTY2
02136  0000  RD12,   0
02137  6005          PION
02140  6571          SVC
02141  1200          P
02142  2370          KB2SEM
02143  6571          SVC
02144  2043          CHIN
02145  2363          KB2BSC
02146  5736          JMP I RD12

/PROCESSOR MANAGEMENT AND INPUT   PAL8-V7  1/31/77   PAGE 27

02167  7566
02170  0734
02171  0722
02172  0462
02173  0400
02174  1252
02175  2024
02176  1473
02177  2177
       2200          *2200
             /TABLE FOR STRTUP
02200  0024  STTAB,  SVCARG; STBSIN  /FOR THE CALL TO BSINIT
02201  2021
02202  0355          SVCDF+1; CDF
02203  6201
02204  0462          ISVAC; 0
02205  0000
02206  2327          PTPSEM; PTPSIZ  /PUNCH OUTPUT BUFFER
02207  0024
02210  2330          PTPSEM+1; 0
02211  0000
02212  2333          PTPBSC+2; PTPBUF+PTPSIZ-1
02213  2423
02214  2334          PTPBSC+3; PTPBUF
02215  2400
02216  2335          PTPBSC+4; 0
02217  0000
02220  2336          TP1SEM; TP1SIZ  /TTY1 OUTPUT BUFFER
02221  0024
02222  2337          TP1SEM+1; 0
02223  0000
02224  2342          TP1BSC+2; TP1BUF+TP1SIZ-1
02225  2447
02226  2343          TP1BSC+3; TP1BUF
02227  2424
02230  2344          TP1BSC+4; 0
02231  0000
02232  2345          TP2SEM; TP2SIZ  /TTY2 OUTPUT BUFFER
02233  0024
02234  2346          TP2SEM+1; 0
02235  0000
02236  2351          TP2BSC+2; TP2BUF+TP2SIZ-1
02237  2473
02240  2352          TP2BSC+3; TP2BUF
02241  2450
02242  2353          TP2BSC+4; 0
02243  0000
02244  2361          KB1SEM; 0       /TTY1 INPUT BUFFER
02245  0000
02246  2362          KB1SEM+1; 0
02247  0000
02250  2356          KB1BSC+2; KB1BUF+KB1SIZ-1
02251  2517
02252  2357          KB1BSC+3; KB1BUF
02253  2474

/PROCESSOR MANAGEMENT AND INPUT   PAL8-V7  1/31/77   PAGE 27-1

02254  2360          KB1BSC+4; -KB1SIZ-1
02255  7753
02256  2370          KB2SEM; 0       /TTY2 INPUT BUFFER
02257  0000
02260  2371          KB2SEM+1; 0
02261  0000
02262  2365          KB2BSC+2; KB2BUF+KB2SIZ-1
02263  2543
02264  2366          KB2BSC+3; KB2BUF
02265  2520
02266  2367          KB2BSC+4; -KB2SIZ-1
02267  7753
02270  0753          ITGSEM; 0       /INTEGRATOR SEMAPHORE
02271  0000
02272  0754          ITGSEM+1; 0
02273  0000
02274  1062          ITM1+2; 0       /TIMERS
02275  0000
02276  1066          ITM2+2; 0
02277  0000
02300  1072          ITM3+2; 0
02301  0000
02302  1076          ITM4+2; 0
02303  0000
02304  0023          IMASK; SYSMSK   /INITIAL SYSTEM INTERRUPT MASK.
02305  0111
02306  0020          RUN; 0
02307  0000
02310  0021          READY; 0
02311  0000
02312  0200          INTHDL; NOP
02313  7000
02314  5705          DTSEM; 0
02315  0000
02316  5706          DTSEM+1; 0
02317  0000
02320  5707          TC1SEM; 1
02321  0001
02322  5710          TC1SEM+1; 0
02323  0000
02324  0037          SCFLG; 0
02325  0000
02326  0000          0

/PROCESSOR MANAGEMENT AND INPUT   PAL8-V7  1/31/77   PAGE 28

             /DATABASES FOR TELETYPES, PUNCH
02327  0000  PTPSEM, 0; 0
02330  0000
02331  2400  PTPBSC, PTPBUF
02332  5354          -PTPBUF-PTPSIZ
02333  0000          0
02334  0000          0
02335  0000          0

02336  0000  TP1SEM, 0;0
02337  0000
02340  2424  TP1BSC, TP1BUF
02341  5330          -TP1BUF-TP1SIZ
02342  0000          0
02343  0000          0
02344  0000          0

02345  0000  TP2SEM, 0; 0
02346  0000
02347  2450  TP2BSC, TP2BUF
02350  5304          -TP2BUF-TP2SIZ
02351  0000          0
02352  0000          0
02353  0000          0

02354  2474  KB1BSC, KB1BUF
02355  5260          -KB1BUF-KB1SIZ
02356  0000          0
02357  0000          0
02360  0000          0
02361  0000  KB1SEM, 0; 0
02362  0000

02363  2520  KB2BSC, KB2BUF
02364  5234          -KB2BUF-KB2SIZ
02365  0000          0
02366  0000          0
02367  0000          0
02370  0000  KB2SEM, 0; 0
02371  0000

/PROCESSOR MANAGEMENT AND INPUT   PAL8-V7  1/31/77   PAGE 29

       2400          *2400
             /CHARACTER INPUT/OUTPUT BUFFERS
       0024  PTPSIZ=24
       0024  TP1SIZ=24
       0024  TP2SIZ=24
       0024  KB1SIZ=24
       0024  KB2SIZ=24

02400  0000  PTPBUF, ZBLOCK 24
02424  0000  TP1BUF, ZBLOCK 24
02450  0000  TP2BUF, ZBLOCK 24
02474  0000  KB1BUF, ZBLOCK 24
02520  0000  KB2BUF, ZBLOCK 24

/PROCESSOR MANAGEMENT AND INPUT   PAL8-V7  1/31/77   PAGE 30

       2600          *2600
             /LINKAGE FOR RE-ENTRENT SUBROUTINE CALL (SVC ROUTINE)
             /SVC
             /CALL
             /-----> SUBROUTINE ADDRESS
             /       BITS6-8 = FIELD OF SUBR., B9-11 = FIELD OF CALL
             /       START OF ARGUMENT LIST
             /FIRST WORD OF SUBROUTINE CONTAINS NUMBER OF WORKING REGISTERS NEEDED,
             /INCLUDING THE HEADER. ALLOCATE A WREG. FRAME, PUSH IT ONTO THE CHAIN
             /SET UP THE HEADER, AND CHANGE ISVPC AND ISVMF FOR ENTRY INTO THE SUBR.
02600  0000  CALL,   0
02601  1024          TAD SVCARG      /PICK UP ARGUMENTS
02602  6673          LDX SXM 70
02603  3256          DCA CLIST       /SAVE POINTER TO ARGUMENT LIST
02604  4777'         JMS SVCDF
02605  1100          TAD X           /GET SUBROUTINE ADDRESS
02606  3257          DCA CALLPC
02607  1101          TAD X+1         /GET SUBROUTINE MEMORY FIELDS
02610  3260          DCA CALLMF
02611  1260          TAD CALLMF      /GET NUMBER OF WREGS. NEEDED
02612  0376          AND (70         /CHANGE TO  FIELD OF SUBROUTINE TO PICK
02613  1220          TAD CLCDF       /UP THE APPROPRIATE NUMBER
02614  3215          DCA .+1
02615  7000          NOP
02616  1657          TAD I CALLPC
02617  3264          DCA CLALST+3    /PUT NUMBER IN ARG LIST
02620  6201  CLCDF,  CDF             /SET UP FOR CALL TO ALOC
02621  1220          TAD CLCDF       /SET SVCDF
02622  3775'         DCA SVCDF+1
02623  1374          TAD (CLALST     /SET SVCARG
02624  3024          DCA SVCARG
02625  4773'         JMS ALOC        /CALL ALOC
02626  5600          JMP I CALL      /ERROR RETURN
02627  1020          TAD RUN         /PUSH WREG. FRAME
02630  6667          LDXC SXM 60
02631  1102          TAD X+PCBWR
02632  3663          DCA I CLALST+2
02633  1263          TAD CLALST+2
02634  3102          DCA X+PCBWR
02635  1102          TAD X+PCBWR     /SET PWREGS
02636  3003          DCA PWREGS
02637  7240          STA             /LOAD THE HEADER
02640  1003          TAD PWREGS      /LOAD X FOR THE CALL TO UPPCB
02641  6605          LDXC
02642  4772'         JMS UPPCB       /LOAD THE SAVED REGISTERS
02643  7105          CLL IAC RAL     /LOAD THE POINTER TO THE ARG LIST
02644  1256          TAD CLIST
02645  3102          DCA X+WRALST+1  /+1 BECAUSE X POINTS TO WREGS. - 1
02646  1257          TAD CALLPC      /SET UP ISVPC AND ISVMF
02647  7001          IAC
02650  3771'         DCA ISVPC
02651  1260          TAD CALLMF
02652  3770'         DCA ISVMF
02653  1263          TAD CLALST+2    /SET NEW X TO POINT TO THE WREGS.
02654  3767'         DCA ISVX

/PROCESSOR MANAGEMENT AND INPUT   PAL8-V7  1/31/77   PAGE 30-1

02655  5600          JMP I CALL
02656  0000  CLIST,  0
02657  0000  CALLPC, 0
02660  0000  CALLMF, 0
02661  6201  CLALST, CDF             /ARG LIST FOR CALL TO ALOC
02662  7000          SYSBS
02663  0000          0
02664  0000          0

/PROCESSOR MANAGEMENT AND INPUT   PAL8-V7  1/31/77   PAGE 31

             /RETURN LINKAGE FOR SVC CALL MECHANISM
             /POP WREG. FRAME, RESET PWREGS, RESTORE SAVED REGISTERS, FREE FRAME.
02665  0000  RETURN, 0
02666  1020          TAD RUN         /POP FRAME
02667  6667          LDXC SXM 60
02670  1102          TAD X+PCBWR     /FIRST SAVE POINTER TO FRAME
02671  3324          DCA RTALST+2    /IN ARG LIST FOR CALL TO FREE
02672  1502          TAD I X+PCBWR   /UNCHAIN THE FRAME
02673  3102          DCA X+PCBWR
02674  1102          TAD X+PCBWR     /RESET PWREGS
02675  3003          DCA PWREGS
02676  1324          TAD RTALST+2    /RESTORE SAVED REGISTERS:
02677  6605          LDXC
02700  1102          TAD X+WRPC      /PC
02701  3771'         DCA ISVPC
02702  1103          TAD X+WRAC      /AC
02703  3766'         DCA ISVAC
02704  1104          TAD X+WRMQ      /MQ
02705  3765'         DCA ISVMQ
02706  1105          TAD X+WRX       /X
02707  3767'         DCA ISVX
02710  1106          TAD X+WRLXM     /LXM
02711  3764'         DCA ISVLXM
02712  1107          TAD X+WRMF      /MF
02713  3770'         DCA ISVMF
02714  1322          TAD RTALST      /SET UP FOR CALL TO FREE
02715  3775'         DCA SVCDF+1
02716  1363          TAD (RTALST
02717  3024          DCA SVCARG
02720  4762'         JMS FREE
02721  5665          JMP I RETURN
02722  6201  RTALST, CDF
02723  7000          SYSBS
02724  0000          0

/PROCESSOR MANAGEMENT AND INPUT   PAL8-V7  1/31/77   PAGE 32

             /NULL ROUTINE
02725  0000  NULL,   0
02726  6005          PION
02727  5725          JMP I NULL

             /SKIP IF CTRL/O FROM TTY1, RESET THE CTRL/O SWITCH
02730  0000  CTRLO1, 0
02731  1005          TAD CCSW1+1
02732  7104          CLL RAL
02733  7430          SZL
02734  2330          ISZ CTRLO1
02735  7110          CLL RAR
02736  3005          DCA CCSW1+1
02737  6005          PION
02740  5730          JMP I CTRLO1

             /SKIP IF CTRL/O FROM TTY2, RESET THE SWITCH
02741  0000  CTRLO2, 0
02742  1007          TAD CCSW2+1
02743  7104          CLL RAL
02744  7430          SZL
02745  2341          ISZ CTRLO2
02746  7110          CLL RAR
02747  3007          DCA CCSW2+1
02750  6005          PION
02751  5741          JMP I CTRLO2

/PROCESSOR MANAGEMENT AND INPUT   PAL8-V7  1/31/77   PAGE 33

02762  1641
02763  2722
02764  0266
02765  0264
02766  0462
02767  0265
02770  0267
02771  0461
02772  0270
02773  1600
02774  2661
02775  0355
02776  0070
02777  0354
       3000          *3000
             /DO SPECIAL POINTER ADDRESSING FOR ARGUMENT PICK UP
             /ENTER X -> WREGS.
             /WRALST--->     B3-5<>0 => ADD SAVED AC6-8 TO DF,
             /               B6-8=DF, B9-11= 0  OFFSET FROM   0
             /                               1                CUR. WREG. FRAME
             /                               2                PREV. WREG. FRAME
             /                               4                SAVED PC
             /                               5                       AC
             /                               6                       MQ
             /                               7                       X
             /               OFFSET
             /
             /UPDATE WRALST, RETURN STUFF TO THW WREG. HEADER, IF WORD ONE IS
             /<0 RETURN WITH IT IN THE AC, IF NOT, SKIP, RETURN WITH DF SET TO
             /THE DF OF THE ARGUMENT.
03000  0000  VARAD,  0
03001  1200          TAD VARAD
03002  3113          DCA X+WR3
03003  4777'         JMS ARGCDF      /CHANGE TO DF OF ARG LIST
03004  1501          TAD I X+WRALST  /IF BITS 3-5 <>0, ADD IN BASE FIELD
03005  0376          AND (700
03006  7640          SZA CLA
03007  1103          TAD X+WRAC
03010  0375          AND (70
03011  3110          DCA X+WR0
03012  1501          TAD I X+WRALST  /GET WORD ONE
03013  7510          SPA
03014  5513          JMP I X+WR3
03015  1110          TAD X+WR0
03016  0375          AND (70         /FORM CDF AND PUT IN WR0
03017  1374          TAD (CDF
03020  3110          DCA X+WR0
03021  1501          TAD I X+WRALST  /GET BASE ADDRESS
03022  0373          AND (7  /FIRST, GET BASE REG NUMBER
03023  7450          SNA             /IF ITS ZERO, BASE ADDRESS IS ZERO
03024  5237          JMP VRADL1
03025  1372          TAD (-1         /OFFSET FROM CURRENT WREG. FRAME?
03026  7440          SZA
03027  5232          JMP .+3
03030  1003          TAD PWREGS

/PROCESSOR MANAGEMENT AND INPUT   PAL8-V7  1/31/77   PAGE 33-1

03031  5237          JMP VRADL1
03032  1371          TAD (TAD X-1    /FORM TAD X+ INSTRUCTION
03033  6002          IOF             /LOCK
03034  3235          DCA .+1
03035  7000          NOP             /GET BASE ADDRESS
03036  6005          PION            /UNLOCK
03037  2101  VRADL1, ISZ X+WRALST
03040  1501          TAD I X+WRALST  /ADD OFFSET
03041  2101          ISZ X+WRALST
03042  3111          DCA X+WR1
03043  1110          TAD X+WR0       /CHANGE TO DATA FIELD OF ARGUMENT
03044  6002          IOF
03045  3246          DCA .+1
03046  7000          NOP
03047  6005          PION
03050  1511          TAD I X+WR1
03051  3112          DCA X+WR2
03052  2113          ISZ X+WR3
03053  5513          JMP I X+WR3

/PROCESSOR MANAGEMENT AND INPUT   PAL8-V7  1/31/77   PAGE 34

             /WORKING REGISTERS FOR READ AND WRITE
       3054  RSTAD1=.
03171  1077
03172  7777
03173  0007
03174  6201
03175  0070
03176  0700
03177  3200
       0014          *WR
                     NOPUNCH
             /LINKAGE WORDS
00014  0000  RWLK1,  0
00015  0000  RWLK2,  0
00016  0000  RWLK3,  0

             /CHARACTER IN/OUT POINTERS
00017  0000  RWCIN,  0       /ADDRESS OF CHIN OR ^O ROUTINE
00020  0000  RWCOUT, 0       /ADDRESS OF CHOUT OR ECHO ROUTINE

             /6-BIT STRING HANDLING STUFF
00021  0000  RWSTB,  0       /STRING BASE ADDRESS
00022  0000  RWSTO,  0       /CHARACTER OFFSET

             /INPUT CONVERSION
00023  0000  CVCHAR, 0       /CHARACTER HELD HERE
00024  0000  CVNUM,  0       /NUMBER CONVERTED HERE

             RWWR,
             /REGISTERS FOR WRITE ONLY
             /FORMAT STRING STUFF
00025  0000  FMTRC,  0       /REPEAT COUNTER
00026  0000  FMTRO,  0       /REPEAT OFFSET
00027  0000  FMTPC,  0       /() REPEAT COUNTER
00030  0000  FMTPO,  0       /() OFFSET

             /VARIABLE LIST STUFF
00031  0000  WRVDF,  0       /62N1
00032  0000  WRVAD,  0       /CURRENT VARIABLE ADDRESS
00033  0000  WRVCT,  0       /VARIABLE REPEAT COUNT
00034  0000  WRVAR,  0       /VALUE

             /OUTPUT FORMAT
00035  0000  FILL,   0       /FILL CHARACTER
00036  0000  FORMN,  0       /# OF CHARACTERS
00037  0000  TYDCT,  0       /COUNTER FOR TYDEC
00040  0000  TYDPTR, 0       /POINTER FOR TYDEC
             WRWR,

       0025          *RWWR
             /REGISTERS FOR READ ONLY
00025  0000  TBPTR,  0       /TOKEN BUFFER POINTER
00026  0000  OPTAB,  0       /POINTER TO OPERATOR TABLE
00027  0000  OPBUF,  ZBLOCK 6        /HOLDS OPERATOR BEING WORKED ON
00035  0000  RDFLG,  0       /FLAG FOR MINUS SIGN

/PROCESSOR MANAGEMENT AND INPUT   PAL8-V7  1/31/77   PAGE 34-1

00036  0000  RDBUF,  ZBLOCK 44       /72-CHAR BUFFER
             RDWR,
                     ENPUNCH
       3054          *RSTAD1

/PROCESSOR MANAGEMENT AND INPUT   PAL8-V7  1/31/77   PAGE 35

             /READ ROUTINE. ENTERED BY SVC CALL MECHANISM
             /ARG 1 - INPUT UNIT NUMBER
             /    2 - ECHO UNIT NUMBER
             /    3 - POINTER TO OPERATOR TABLE
             /    4 - POINTER TO TOKEN BUFFER
03054  0102  READ,   RDWR            /NUMBER OF WREGS. NEEDED.
03055  6666          SXM 60 XCLA
03056  6002          IOF             /PICK UP ARGUMENTS
03057  4200          JMS VARAD       /FETCH INPUT UNIT NUMBER
03060  7200          CLA
03061  1112          TAD X+WR2       /DO TABLE LOOKUP
03062  1370          TAD (CHITAB
03063  3117          DCA X+RWCIN
03064  6201          CDF
03065  1517          TAD I X+RWCIN
03066  3117          DCA X+RWCIN
03067  6002          IOF             /FETCH ECHO UNIT NUMBER
03070  4200          JMS VARAD
03071  7200          CLA
03072  1112          TAD X+WR2
03073  1367          TAD (CHOTAB
03074  3120          DCA X+RWCOUT
03075  6201          CDF
03076  1520          TAD I X+RWCOUT
03077  3120          DCA X+RWCOUT
03100  6002          IOF             /FETCH POINTER TO OPERATOR TABLE
03101  4200          JMS VARAD
03102  7200          CLA
03103  1111          TAD X+WR1
03104  3126          DCA X+OPTAB
03105  6002          IOF             /FETCH POINTER TO TOKEN BUFFER
03106  4200          JMS VARAD
03107  7200          CLA
03110  1111          TAD X+WR1
03111  3125          DCA X+TBPTR
03112  1003  READL1, TAD PWREGS      /SET UP INPUT STRING BASE ADDRESS
03113  1366          TAD (RDBUF
03114  3121          DCA X+RWSTB
03115  6002          IOF             /READ FIRST RECORD
03116  4765'         JMS RDREC
03117  3122          DCA X+RWSTO
03120  3135          DCA X+RDFLG
03121  5764'         JMP RDPRC

/PROCESSOR MANAGEMENT AND INPUT   PAL8-V7  1/31/77   PAGE 36

             /WRITE ROUTINE. ENTERED BY SVC CALL MECHANISM
             /ARG 1 - OUTPUT UNIT NUMBER
             /    2 - CNTRL/O UNIT NUMBER
             /    3 - POINTER TO FORMAT STRING
             /    4-N - VARIABLE LIST, TERMINATED BY 4000 OCTAL
             /IF CONTROL O IS DETECTED, WRITE TAKES THE NON-SKIP RETURN WITH
             /THE AC=1 (PRINTOUT STOPS IMMEDIATLY)
03122  0041  WRITE,  WRWR
03123  6666          SXM 60 XCLA
03124  6002          IOF             /FETCH OUTPUT UNIT NUMBER
03125  4200          JMS VARAD
03126  7200          CLA
03127  1112          TAD X+WR2       /DO TABLE LOOKUP
03130  1367          TAD (CHOTAB
03131  3120          DCA X+RWCOUT
03132  6201          CDF
03133  1520          TAD I X+RWCOUT
03134  3120          DCA X+RWCOUT
03135  6002          IOF             /FETCH CTRL/O UNIT NUMBER
03136  4200          JMS VARAD
03137  7200          CLA
03140  1112          TAD X+WR2
03141  1363          TAD (CTOTAB
03142  3117          DCA X+RWCIN
03143  6201          CDF
03144  1517          TAD I X+RWCIN
03145  3117          DCA X+RWCIN
03146  6002          IOF             /FETCH POINTER TO FORMAT
03147  4200          JMS VARAD
03150  7200          CLA
03151  1111          TAD X+WR1
03152  3121          DCA X+RWSTB
03153  1362          TAD (240        /SET FILL TO SPACE
03154  3135          DCA X+FILL
03155  5761'         JMP WRPRC

/PROCESSOR MANAGEMENT AND INPUT   PAL8-V7  1/31/77   PAGE 37

03161  3210
03162  0240
03163  3341
03164  4466
03165  3400
03166  0036
03167  3334
03170  3331
       3200          *3200
             /CHANGE TO DATA FIELD OF ARGUMENT LIST
03200  0000  ARGCDF, 0
03201  1107          TAD X+WRMF
03202  0377          AND (70
03203  1376          TAD (CDF
03204  3205          DCA .+1
03205  7000          NOP
03206  6005          PION
03207  5600          JMP I ARGCDF

/PROCESSOR MANAGEMENT AND INPUT   PAL8-V7  1/31/77   PAGE 38

             /WRITE PROCESSOR.
             /READ FROM FORMAT, SET UP REPEAT COUNTER, LOOK UP CHARACTER IN
             /TABLE, ENTER APPROPRIATE ROUTINE.
03210  7240  WRPRC,  STA             /INITIALIZATION. SET RWVCT TO -1
03211  3133          DCA X+WRVCT
03212  3122          DCA X+RWSTO     /ZERO FORMAT OFFSET
03213  6002  WRPL1,  IOF             /GET REPEAT COUNT AND CHARACTER
03214  4200          JMS ARGCDF
03215  6002          IOF
03216  4346          JMS RWSCAN
03217  1124          TAD X+CVNUM     /SET UP REPEAT COUNT
03220  7450          SNA             /IF IT IS 0, MAKE IT 1
03221  7001          IAC
03222  7041          CIA
03223  3125          DCA X+FMTRC
03224  1122          TAD X+RWSTO     /SET UP REPEAT OFFSET
03225  3126          DCA X+FMTRO
                                     /LOOK UP CHARACTER IN TABLE
03226  1375  WRPL4,  TAD (FMTAB      /EACH ENTRY:  CHARACTER
03227  3124          DCA X+CVNUM
03230  6002          IOF             /             WRITE HANDLER
03231  4774'         JMS RWNCH       /USE CVNUM AS A POINTER
03232  6201          CDF
03233  1524  WRPL2,  TAD I X+CVNUM   /FETCH CHAR FROM TABLE
03234  2124          ISZ X+CVNUM
03235  7450          SNA             /END OF TABLE?
03236  5213          JMP WRPL1       /YES, IGNORE CHARACTER
03237  7041          CIA             /NO, TEST
03240  1123          TAD X+CVCHAR
03241  7650          SNA CLA
03242  5245          JMP .+3
03243  2124          ISZ X+CVNUM     /NO MATCH, TRY AGAIN
03244  5233          JMP WRPL2
03245  1524          TAD I X+CVNUM   /GET ADDRESS
03246  3124          DCA X+CVNUM
03247  6002          IOF             /CHANGE TO DATA FIELD OF FORMAT
03250  4200          JMS ARGCDF
03251  5524          JMP I X+CVNUM

             /RETURN TO READ/WRITE PROCESSOR
03252  2125  WRPL3,  ISZ X+FMTRC     /HANDLE REPEAT COUNTER
03253  7410          SKP
03254  5213          JMP WRPL1
03255  1126          TAD X+FMTRO
03256  3122          DCA X+RWSTO
03257  6002          IOF
03260  4200          JMS ARGCDF
03261  5226          JMP WRPL4

             /END OF READ/WRITE, SKIP RETURN
03262  2102  RWEND,  ISZ X+WRPC
03263  6571          SVC
03264  2665          RETURN
03265  0000          0

/PROCESSOR MANAGEMENT AND INPUT   PAL8-V7  1/31/77   PAGE 39

             /FORMAT TABLE
03266  0300  FMTAB,  "@;RWEND        /END OF FORMAT STRING
03267  3262
03270  0247          "';WRPQT        /QUOTE
03271  4070
03272  0257          "/;WRPCR        /SLASH
03273  4111
03274  0311          "I;WRPI         /INTEGER
03275  4114
03276  0303          "C;WRPCH                /6-BIT ALPHA-NUMERIC
03277  4142
03300  0251          "); WRPRP
03301  4607
03302  0250          "(; WRPLP
03303  4600
03304  0336          "^; WRPUA
03305  4615
03306  0330          "X; WRPX
03307  4624
03310  0304          "D; WRPD
03311  4630
03312  0324          "T; WRPT
03313  4675
03314  0276          ">; WRGT
03315  4745
03316  0274          "<; WRPLT
03317  6117
03320  0314          "L; WRPL
03321  6112
03322  0301          "A; WRPA
03323  6066
03324  0326          "V; WRPV
03325  6121
03326  0244          "$; WRPDS
03327  6125
03330  0000          0
             /TABLE OF CHARACTER INPUT ROUTINES
03331  2725  CHITAB, NULL
03332  2125          RD11
03333  2136          RD12

             /TABLE OF CHARACTER OUTPUT ROUTINES
03334  2725  CHOTAB, NULL
03335  2067          TYPE1
03336  2107          TYPE2
03337  2054          PUNCH
03340  5200          TYPE4   /SCOPE

             /TABLE OF CTRL/O CHECKING ROUTINES
03341  2725  CTOTAB, NULL
03342  2730          CTRLO1
03343  2741          CTRLO2
03344  2725          NULL
03345  2725          NULL

/PROCESSOR MANAGEMENT AND INPUT   PAL8-V7  1/31/77   PAGE 40

             / SCAN STRING UNTIL A NON-NUMERIC CHARACTER IN ENCOUNTERED.
             / CONVERT NUMBER AND PUT INTO CVNUM.
03346  0000  RWSCAN, 0
03347  1346          TAD RWSCAN
03350  3115          DCA X+RWLK2
03351  6005          PION
03352  3124          DCA X+CVNUM     /ZERO CVNUM
03353  6002          IOF
03354  4774'         JMS RWNCH       /GET NEXT CHARACTER
03355  6002          IOF             /TEST IT
03356  4773'         JMS RWCVN
03357  7410          SKP
03360  5353          JMP .-5
03361  7240          STA
03362  1122          TAD X+RWSTO
03363  3122          DCA X+RWSTO
03364  5515          JMP I X+RWLK2

/PROCESSOR MANAGEMENT AND INPUT   PAL8-V7  1/31/77   PAGE 41

03373  4043
03374  3707
03375  3266
03376  6201
03377  0070
       3400          *3400
             /READ ONE RECORD
             /HANDLE RUBOUT, ^U, IGNORE MORE THAN 71 CHARACTERS, FILL THE
             /UNUSED PART OF THE BUFFER WITH SPACES.
             /USES WR0 AS A MOD 72 COUNTER
03400  0000  RDREC,  0
03401  1200          TAD RDREC
03402  3115          DCA X+RWLK2
03403  6005          PION
03404  6201          CDF
03405  1377  RDRL1,  TAD (-110       /INIT. MOD 72 COUNTER
03406  3110          DCA X+WR0
03407  3122          DCA X+RWSTO
03410  6002  RDRL2,  IOF             /GET NEXT CHARACTER
03411  4517          JMS I X+RWCIN
03412  3123          DCA X+CVCHAR    /SAVE IT
03413  1123          TAD X+CVCHAR
03414  1376          TAD (-214       /IS IT ^L?
03415  7450          SNA
03416  5317          JMP RDRFF
03417  1375          TAD (214-377    /IS IT RUBOUT?
03420  7450          SNA
03421  5260          JMP RDRDLT
03422  1374          TAD (377-225    /IS IT CTRL/U?
03423  7450          SNA
03424  5275          JMP RDRKL
03425  1373          TAD (225-215    /IS IT CR?
03426  7450          SNA
03427  5306          JMP RDRCR
03430  1372          TAD (215-240    /IGNORE CONTROL CHARACTERS
03431  7710          SPA CLA
03432  5210          JMP RDRL2
03433  1123          TAD X+CVCHAR
03434  1371          TAD (-373       /IGNORE ABOVE 372 OCTAL
03435  7700          SMA CLA
03436  5210          JMP RDRL2
03437  1123          TAD X+CVCHAR    /FORCE LETTERS UPPER CASE
03440  1370          TAD (-341
03441  7510          SPA
03442  1367          TAD (40
03443  1366          TAD (301
03444  3123          DCA X+CVCHAR
03445  2110          ISZ X+WR0       /IGNORE OVER 71 CHATACTERS
03446  5252          JMP .+4
03447  7240          STA
03450  3110          DCA X+WR0
03451  5210          JMP RDRL2
03452  1123          TAD X+CVCHAR    /ECHO CHARACTER
03453  6002          IOF
03454  4520          JMS I X+RWCOUT

/PROCESSOR MANAGEMENT AND INPUT   PAL8-V7  1/31/77   PAGE 41-1

03455  6002          IOF             /DUMP CHAR INTO BUFFER
03456  4323          JMS RWWNC
03457  5210          JMP RDRL2

             /HANDLE RUBOUT
03460  7240  RDRDLT, STA             /DECREMENT THE MOD 72 COUNTER
03461  1110          TAD X+WR0
03462  3110          DCA X+WR0
03463  7240          STA             /DECREMENT STRING ADDRESS
03464  1122          TAD X+RWSTO
03465  3122          DCA X+RWSTO
03466  1122          TAD X+RWSTO     /IF RUBOUT BEYOND BEGINNING OF LINE, DO A ^U

03467  7710          SPA CLA
03470  5275          JMP RDRKL
03471  1365          TAD ("\         /ECHO \
03472  6002          IOF
03473  4520          JMS I X+RWCOUT
03474  5210          JMP RDRL2

             /HANDLE CTRL/U
03475  1364  RDRKL,  TAD ("^         /ECHO ^U, CR, LF, NULL
03476  6002          IOF
03477  4520          JMS I X+RWCOUT
03500  1363          TAD ("U
03501  6002          IOF
03502  4520          JMS I X+RWCOUT
03503  6002          IOF
03504  4762'         JMS TYEOL
03505  5205          JMP RDRL1

             /HANDLE CR
03506  6002  RDRCR,  IOF             /ECHO CR,LF,NULL
03507  4762'         JMS TYEOL
03510  1361          TAD (240        /FILL THE REST OF THE BUFFER WITH SPACES
03511  3123          DCA X+CVCHAR
03512  6002          IOF
03513  4323          JMS RWWNC
03514  2110          ISZ X+WR0
03515  5312          JMP .-3
03516  5515          JMP I X+RWLK2

             /HANDLE ^L
03517  1360  RDRFF,  TAD (214
03520  6002          IOF
03521  4520          JMS I X+RWCOUT
03522  5210          JMP RDRL2

/PROCESSOR MANAGEMENT AND INPUT   PAL8-V7  1/31/77   PAGE 42

             /WRITE CVCHAR INTO 6-BIT STRING. USES WR1 AS TEMP STORAGE
             /WHEN WRITING LEFT HALF OF WORD, RIGHT HALF IS CLOBBERED
03523  0000  RWWNC,  0
03524  1323          TAD RWWNC
03525  3114          DCA X+RWLK1
03526  6005          PION
03527  1122          TAD X+RWSTO     /GET ADDRESS OF WORD CHAR GOES INTO
03530  2122          ISZ X+RWSTO
03531  7110          CLL RAR
03532  1121          TAD X+RWSTB
03533  3111          DCA X+WR1
03534  1123          TAD X+CVCHAR    /GET CHAR
03535  0357          AND (77
03536  7421          MQL
03537  7430          SZL             /IF OFFSET WAS EVEN, SHIFT LEFT
03540  5343          JMP .+3
03541  7413          SHL; 5
03542  0005
03543  1511          TAD I X+WR1     /GET WORD AND INSERT CHARACTER
03544  7420          SNL
03545  7200          CLA
03546  0356          AND (7700
03547  7501          MQA
03550  3511          DCA I X+WR1
03551  5514          JMP I X+RWLK1

/PROCESSOR MANAGEMENT AND INPUT   PAL8-V7  1/31/77   PAGE 43

03556  7700
03557  0077
03560  0214
03561  0240
03562  3600
03563  0325
03564  0336
03565  0334
03566  0301
03567  0040
03570  7437
03571  7405
03572  7755
03573  0010
03574  0152
03575  7615
03576  7564
03577  7670
       3600          *3600
             /TYPE CR,LF,NULL
03600  0000  TYEOL,  0
03601  1200          TAD TYEOL
03602  3114          DCA X+RWLK1
03603  6005          PION
03604  1377          TAD (215        /CR
03605  6002          IOF
03606  4520          JMS I X+RWCOUT
03607  1376          TAD (212        /LF
03610  6002          IOF
03611  4520          JMS I X+RWCOUT
03612  6002          IOF             /NULL
03613  4520          JMS I X+RWCOUT
03614  5514          JMP I X+RWLK1

             /WRITE ONE CHARACTER AND CHECK FOR CONTROL O
03615  0000  WRIT1,  0
03616  7421          MQL
03617  1215          TAD WRIT1
03620  3114          DCA X+RWLK1
03621  6005          PION
03622  7501          MQA
03623  6002          IOF     /WRITE CHARACTER
03624  4520          JMS I X+RWCOUT
03625  6002          IOF     /CHECK FOR CTRL/O
03626  4517          JMS I X+RWCIN
03627  5514          JMP I X+RWLK1
03630  7201          CLA IAC         /^O, RETURN WITH AC=1
03631  3103          DCA X+WRAC
03632  6571          SVC
03633  2665          RETURN
03634  0000          0

/PROCESSOR MANAGEMENT AND INPUT   PAL8-V7  1/31/77   PAGE 44

             /DECIMAL TYPE OUT ROUTINE. CONVERT RWVAR TO DECIMAL ASCII CHARACTERS
             /AND TYPE OUT. USES WR0 THRU WR3 AS A BUFFER
             /FORMN SHOULD NOT BE GREATER THAN 4.
03635  0000  TYDEC,  0
03636  1235          TAD TYDEC
03637  3115          DCA X+RWLK2
03640  6005          PION
03641  1375          TAD (-4         /SET UP FOR PART 1 - CONVERT NUMBER AND PUT
03642  3137          DCA X+TYDCT     /IN BUFFER AREA
03643  1003          TAD PWREGS
03644  1374          TAD (WR3        /SET UP POINTER INTO BUFFER
03645  3140          DCA X+TYDPTR
03646  6201          CDF
03647  1134          TAD X+WRVAR     /GET NUMBER
03650  7421          MQL
03651  7407  TYDL1,  DVI; 12         /CONVERSION LOOP. DIVIDE BY 10
03652  0012
03653  1373          TAD (260        /CONVERT TO ASCII
03654  3540  TYDL4,  DCA I X+TYDPTR  /PUT IN BUFFER
03655  2137          ISZ X+TYDCT     /DONE?
03656  5277          JMP TYDL2
03657  1136          TAD X+FORMN     /YES, DUMP BUFFER
03660  7450          SNA
03661  5515          JMP I X+RWLK2
03662  7041          CIA
03663  3137          DCA X+TYDCT
03664  1003          TAD PWREGS      /SET UP POINTER
03665  1372          TAD (WR3+1
03666  1137          TAD X+TYDCT
03667  3140          DCA X+TYDPTR
03670  1540  TYDL3,  TAD I X+TYDPTR  /OUTPUT LOOP
03671  6002          IOF
03672  4215          JMS WRIT1
03673  2140          ISZ X+TYDPTR
03674  2137          ISZ X+TYDCT
03675  5270          JMP TYDL3
03676  5515          JMP I X+RWLK2
03677  7240  TYDL2,  STA             /UPDATE POINTER FOR CONVERSION LOOP
03700  1140          TAD X+TYDPTR
03701  3140          DCA X+TYDPTR
03702  7501          MQA             /IF MQ = 0, DUMP FILL CHAR
03703  7640          SZA CLA
03704  5251          JMP TYDL1
03705  1135          TAD X+FILL
03706  5254          JMP TYDL4

/PROCESSOR MANAGEMENT AND INPUT   PAL8-V7  1/31/77   PAGE 45

             /GET CHAR FROM 6-BIT STRING, UPDATE RWSTO
03707  0000  RWNCH,  0
03710  1307          TAD RWNCH
03711  3114          DCA X+RWLK1
03712  6005          PION
03713  1122          TAD X+RWSTO     /GET ADDRESS OF WORD CONTAINING CHARACTER.
03714  2122          ISZ X+RWSTO
03715  7110          CLL RAR         /LSB TELLS WETHER LEFT OR RIGHT HALF
03716  1121          TAD X+RWSTB
03717  3123          DCA X+CVCHAR
03720  1523          TAD I X+CVCHAR  /FETCH WORD
03721  7430          SZL
03722  5325          JMP .+3
03723  7417          LSR; 5  /SHIFT IF NECESSARY
03724  0005
03725  0371  RWNCHL, AND (77         /MASK OFF HIGH 6 BITS
03726  3123          DCA X+CVCHAR
03727  1123          TAD X+CVCHAR    /CONVERT TO 8-BIT CODE
03730  7044          CMA RAL
03731  0370          AND (0300
03732  1123          TAD X+CVCHAR
03733  3123          DCA X+CVCHAR
03734  5514          JMP I X+RWLK1

/PROCESSOR MANAGEMENT AND INPUT   PAL8-V7  1/31/77   PAGE 46

             /SKIP IF CVCHAR IS ALPHA-NUMERIC
03735  0000  SKLET,  0
03736  1123          TAD X+CVCHAR
03737  1367          TAD (-260
03740  7510          SPA
03741  5353          JMP SKLTL
03742  1366          TAD (260-271
03743  7550          SPA SNA
03744  5352          JMP SKLTL-1
03745  1365          TAD (271-301
03746  7510          SPA
03747  5353          JMP SKLTL
03750  1364          TAD (301-332
03751  7550          SPA SNA
03752  2335          ISZ SKLET
03753  7200  SKLTL,  CLA
03754  6005          PION
03755  5735          JMP I SKLET

/PROCESSOR MANAGEMENT AND INPUT   PAL8-V7  1/31/77   PAGE 47

03764  7747
03765  7770
03766  7767
03767  7520
03770  0300
03771  0077
03772  0014
03773  0260
03774  0013
03775  7774
03776  0212
03777  0215
       4000          *4000
             /GET NEXT VARIABLE ADDRESS FROM LIST. SVC RETURN IF NONE.
             /RETURN WITH THE DF SET TO THE FIELD OF THE VARIABLE
04000  0000  WRNVR,  0
04001  1200          TAD WRNVR
04002  3114          DCA X+RWLK1
04003  6005          PION
04004  2133          ISZ X+WRVCT     /FETCH A NEW VARIABLE FROM LIST?
04005  5226          JMP WRNVL1
04006  6002          IOF             /YES
04007  4777'         JMS VARAD
04010  5237          JMP WRNVL2      /NO MORE VATIABLES
04011  1110          TAD X+WR0       /SET UP VARIABLE DF
04012  3131          DCA X+WRVDF
04013  1111          TAD X+WR1       /                ADDRESS
04014  3132          DCA X+WRVAD
04015  1112          TAD X+WR2       /                VALUE
04016  3134          DCA X+WRVAR
04017  6002          IOF             /GET REPEAT COUNT
04020  4777'         JMS VARAD
04021  7200          CLA
04022  1112          TAD X+WR2
04023  7041          CIA
04024  3133          DCA X+WRVCT
04025  5514          JMP I X+RWLK1
04026  2132  WRNVL1, ISZ X+WRVAD     /REPEAD OLD VARIABLE ADDRESS+1
04027  1131          TAD X+WRVDF
04030  6002          IOF
04031  3232          DCA .+1
04032  7000          NOP
04033  6005          PION
04034  1532          TAD I X+WRVAD
04035  3134          DCA X+WRVAR
04036  5514          JMP I X+RWLK1
04037  7200  WRNVL2, CLA
04040  6002          IOF
04041  4776'         JMS TYEOL
04042  5775'         JMP RWEND

/PROCESSOR MANAGEMENT AND INPUT   PAL8-V7  1/31/77   PAGE 48

             /IF CVCHAR IS A NUMBER, SKIP AND CONVERT TO BINARY, SHIFT INTO
             /CVNUM.
04043  0000  RWCVN,  0
04044  1243          TAD RWCVN
04045  3114          DCA X+RWLK1
04046  6005          PION
04047  1123          TAD X+CVCHAR    /IS IT A NUMBER?
04050  1374          TAD (-260
04051  7710          SPA CLA
04052  5514          JMP I X+RWLK1
04053  1123          TAD X+CVCHAR
04054  1373          TAD (-272
04055  7700          SMA CLA
04056  5514          JMP I X+RWLK1
04057  1124          TAD X+CVNUM     /YES, SHIFT AND ADD
04060  7425          MQL MUY; 12
04061  0012
04062  7701          CLA MQA
04063  1123          TAD X+CVCHAR
04064  1374          TAD (-260
04065  3124          DCA X+CVNUM
04066  2114          ISZ X+RWLK1
04067  5514          JMP I X+RWLK1

/PROCESSOR MANAGEMENT AND INPUT   PAL8-V7  1/31/77   PAGE 49

             /HANDLER FOR QUOTE
04070  6002  WRPQT,  IOF
04071  4772'         JMS RWNCH
04072  1123          TAD X+CVCHAR    /IS IT '?
04073  1371          TAD (-"'
04074  7650          SNA CLA
04075  5302          JMP .+5
04076  1123  RWPQTL, TAD X+CVCHAR    /NO, TYPE IT OUT
04077  6002          IOF
04100  4770'         JMS WRIT1
04101  5270          JMP WRPQT
04102  6002          IOF             /YES, GET NEXT CHARACTER
04103  4772'         JMS RWNCH
04104  1123          TAD X+CVCHAR    /IF IT IS ', TYPE IT OUT AND CONTINUE
04105  1371          TAD (-"'
04106  7650          SNA CLA
04107  5276          JMP RWPQTL
04110  5767'         JMP WRPL3       /NOT QUOTE, DONE

             /HANDLER FOR SLASH
04111  6002  WRPCR,  IOF
04112  4776'         JMS TYEOL
04113  5767'         JMP WRPL3

/PROCESSOR MANAGEMENT AND INPUT   PAL8-V7  1/31/77   PAGE 50

             /HANDLER FOR I OUTPUT
04114  6002  WRPI,   IOF             /FETCH FIELD WIDTH
04115  4766'         JMS RWSCAN
04116  7240          STA             /IN CASE NUMBER IS <0, TO MAKE ROOM FOR "-"
04117  1124          TAD X+CVNUM
04120  3136          DCA X+FORMN
04121  6002          IOF
04122  4200          JMS WRNVR       /FETCH VARIABLE
04123  6201          CDF
04124  1134          TAD X+WRVAR     /IS IT NEGATIVE
04125  7500          SMA
04126  5335          JMP .+7
04127  7041          CIA             /YES, NEGATE AND TYPE -
04130  3134          DCA X+WRVAR
04131  1365          TAD ("-
04132  6002          IOF
04133  4770'         JMS WRIT1
04134  5337          JMP .+3
04135  7200          CLA             /NO, INCREMENT LENGTH
04136  2136          ISZ X+FORMN
04137  6002          IOF
04140  4764'         JMS TYDEC       /TYPE NUMBER
04141  5767'         JMP WRPL3

             /HANDLER FOR C OUTPUT
04142  6002  WRPCH,  IOF             /FETCH VARIABLE
04143  4200          JMS WRNVR
04144  1134          TAD X+WRVAR     /TYPE IT OUT
04145  6002          IOF
04146  4770'         JMS WRIT1
04147  5767'         JMP WRPL3

/PROCESSOR MANAGEMENT AND INPUT   PAL8-V7  1/31/77   PAGE 51

             /DUMP AC INTO TOKEN BUFFER.
04150  0000  TOKE,   0
04151  7421          MQL     /SAVE WORD
04152  1350          TAD TOKE
04153  3114          DCA X+RWLK1
04154  4763'         JMS ARGCDF      /CHANGE TO FIELD OF TOKEN BUFFER
04155  7501          MQA             /DUMP WORD
04156  3525          DCA I X+TBPTR
04157  2125          ISZ X+TBPTR
04160  6201          CDF
04161  5514          JMP I X+RWLK1

/PROCESSOR MANAGEMENT AND INPUT   PAL8-V7  1/31/77   PAGE 52

04163  3200
04164  3635
04165  0255
04166  3346
04167  3252
04170  3615
04171  7531
04172  3707
04173  7506
04174  7520
04175  3262
04176  3600
04177  3000
       4200          *4200
             /GET NUMBER FROM INPUT STRING. IF NUMBER IS FOUND, DUMP TOKEN.
             /IF NO NUMBER IS FOUND, RWSTO IS NOT CHANGED
04200  0000  RDNUM,  0
04201  1200          TAD RDNUM
04202  3116          DCA X+RWLK3
04203  1122          TAD X+RWSTO     /SAVE CURRENT OFFSET
04204  3111          DCA X+WR1
04205  4777'         JMS RWSCAN      /ATTEMPT TO CONVERT NUMBER
04206  1111          TAD X+WR1       /COMPARE OLD OFFSET TO NEW OFFSET, TO SEE
04207  7041          CIA             /IF A NUMBER HAS BEEN FOUND
04210  1122          TAD X+RWSTO
04211  7650          SNA CLA
04212  5516          JMP I X+RWLK3   /NO NUMBER, RETURN
04213  1376          TAD (400        /NUMBER FOUND, FIRST DUMP WORD 1
04214  6002          IOF
04215  4775'         JMS TOKE
04216  1135          TAD X+RDFLG     /GET MINUS BIT
04217  7010          RAR             /AND PUT IT IN THE LINK
04220  7200          CLA
04221  3135          DCA X+RDFLG
04222  1124          TAD X+CVNUM     /GET NUMBER, NEGATE IF LINK=1
04223  7430          SZL
04224  7041          CIA
04225  6002          IOF             /DUMP WORD 2
04226  4775'         JMS TOKE
04227  5516          JMP I X+RWLK3

/PROCESSOR MANAGEMENT AND INPUT   PAL8-V7  1/31/77   PAGE 53

             /GET OPERATOR FROM INPUT STRING, PUT IN OPBUF. SKIP IF ONE IS
             /FOUND.
04230  0000  GETOPR, 0
04231  1230          TAD GETOPR
04232  3115          DCA X+RWLK2
04233  6005          PION
04234  1374          TAD (-6         /INIT. MOD 6 COUNTER
04235  3111          DCA X+WR1
04236  1003          TAD PWREGS      /INIT. POINTER TO OPBUF
04237  1373          TAD (OPBUF
04240  3112          DCA X+WR2
04241  6002  GOPL1,  IOF             /GET NEXT CHAR FROM STRING
04242  4772'         JMS RWNCH
04243  6002          IOF             /IS IT A LETTER OR A NUMBER?
04244  4771'         JMS SKLET
04245  5263          JMP GOPL2
04246  1123          TAD X+CVCHAR    /YES, DUMP IT INTO OPBUF
04247  3512          DCA I X+WR2
04250  2112          ISZ X+WR2
04251  2111          ISZ X+WR1
04252  5241          JMP GOPL1
04253  6002          IOF             /OPBUF FILLED, READ UNTIL A TERMINATOR
04254  4772'         JMS RWNCH       /IS FOUND
04255  6002          IOF
04256  4771'         JMS SKLET
04257  7410          SKP
04260  5253          JMP .-5
04261  2115          ISZ X+RWLK2     /SKIP RETURN
04262  5515          JMP I X+RWLK2
04263  3512  GOPL2,  DCA I X+WR2     /TERMINATOR FOUND BEFORE BUFFER FILLED. DUMP
04264  1127          TAD X+OPBUF     /0 INTO BUFFER, AND TEST TO SEE IF AN OPERATORT
04265  7640          SZA CLA
04266  2115          ISZ X+RWLK2     /WAS FOUND.
04267  5515          JMP I X+RWLK2

/PROCESSOR MANAGEMENT AND INPUT   PAL8-V7  1/31/77   PAGE 54

             /GET OPERATOR FROM INPUT STRING. IF THERE IS ONE, SEARCH OPERATOR
             /TABLE. IF FOUND, DUMP TOKEN, ELSE PRINT ERROR  MESSAGE AND GO TO
             /READL1.
04270  0000  RDOPR,  0
04271  1270          TAD RDOPR
04272  3116          DCA X+RWLK3
04273  4230          JMS GETOPR      /GET OPERATOR
04274  5516          JMP I X+RWLK3   /NONE, RETURN
04275  3135          DCA X+RDFLG
04276  1122          TAD X+RWSTO     /SEARCH TABLE. FIRST SAVE RWSTO
04277  3112          DCA X+WR2
04300  6002          IOF
04301  4770'         JMS SROPT
04302  5317          JMP RDOL1
04303  1367          TAD (1000       /FOUND, DUMP TOKEN
04304  6002          IOF
04305  4775'         JMS TOKE
04306  1003          TAD PWREGS      /RESTORE STRING BASE AND OFFSET
04307  1366          TAD (RDBUF
04310  3121          DCA X+RWSTB
04311  7240          STA
04312  1112          TAD X+WR2
04313  3122          DCA X+RWSTO
04314  6002          IOF
04315  4772'         JMS RWNCH
04316  5516          JMP I X+RWLK3
04317  1374  RDOL1,  TAD (-6         /SET UP FOR TYPING ERROR MESSAGE
04320  3110          DCA X+WR0
04321  1003          TAD PWREGS
04322  1373          TAD (OPBUF
04323  3111          DCA X+WR1
04324  1511  RDOL2,  TAD I X+WR1     /LOOP TO DUMP OPBUF
04325  2111          ISZ X+WR1
04326  7450          SNA
04327  5334          JMP .+5
04330  6002          IOF
04331  4520          JMS I X+RWCOUT
04332  2110          ISZ X+WR0
04333  5324          JMP RDOL2
04334  1365          TAD ("?         /TYPE ?
04335  6002          IOF
04336  4520          JMS I X+RWCOUT
04337  6002          IOF
04340  4764'         JMS TYEOL
04341  5763'         JMP READL1

/PROCESSOR MANAGEMENT AND INPUT   PAL8-V7  1/31/77   PAGE 55

04363  3112
04364  3600
04365  0277
04366  0036
04367  1000
04370  4400
04371  3735
04372  3707
04373  0027
04374  7772
04375  4150
04376  0400
04377  3346
       4400          *4400
             /SEARCH OPERATOR TABLE FOR A MATCH WITH OPBUF. SKIP IF FOUND, WITH
             /INDEX IN AC
04400  0000  SROPT,  0
04401  1200          TAD SROPT
04402  3115          DCA X+RWLK2
04403  6005          PION
04404  3111          DCA X+WR1       /WR1 KEEPS TRACK OF INDEX INTO TABLE
04405  1126          TAD X+OPTAB     /SET IP TO READ FROM OPERATOR TABLE
04406  3121          DCA X+RWSTB
04407  3122          DCA X+RWSTO
04410  1003  SOTL1,  TAD PWREGS      /INIT. POINTER INTO OPBUF
04411  1377          TAD (OPBUF
04412  3113          DCA X+WR3
04413  2111          ISZ X+WR1
04414  6002  SOTL2,  IOF             /GET NEXT CHAR FROM OPTAB
04415  4776'         JMS ARGCDF
04416  6002          IOF
04417  4775'         JMS RWNCH
04420  6201          CDF
04421  1123          TAD X+CVCHAR    /IS IT .?
04422  1374          TAD (-".
04423  7450          SNA
04424  5515          JMP I X+RWLK2   /YES, NOT FOUND, RETURN
04425  1373          TAD (".-"@      /IS IT @?
04426  7450          SNA
04427  5214          JMP SOTL2       /YES, IGNORE
04430  1372          TAD ("@-240     /IS IT SPACE?
04431  7450          SNA
04432  5260          JMP SOTL4
04433  1371          TAD (240-",     /IS IT ,?
04434  7650          SNA CLA
04435  5263          JMP SOTL4+3
04436  1123          TAD X+CVCHAR    /NOT SPECIAL CHAR, CHECK FOR MATCH
04437  7041          CIA
04440  1513          TAD I X+WR3
04441  2113          ISZ X+WR3
04442  7650          SNA CLA
04443  5214          JMP SOTL2       /MATCH, CONTINUE
04444  6002  SOTL3,  IOF             /NO MATCH, SCAN TABLE FOR NEXT SPACE OR COMMA
04445  4776'         JMS ARGCDF      /AND CONTINUE
04446  6002          IOF

/PROCESSOR MANAGEMENT AND INPUT   PAL8-V7  1/31/77   PAGE 55-1

04447  4775'         JMS RWNCH
04450  1123          TAD X+CVCHAR
04451  1370          TAD (-240
04452  7450          SNA
04453  5210          JMP SOTL1
04454  1371          TAD (240-",
04455  7650          SNA CLA
04456  5210          JMP SOTL1
04457  5246          JMP SOTL3+2
04460  1513  SOTL4,  TAD I X+WR3
04461  7640          SZA CLA
04462  5210          JMP SOTL1
04463  2115          ISZ X+RWLK2
04464  1111          TAD X+WR1
04465  5515          JMP I X+RWLK2

/PROCESSOR MANAGEMENT AND INPUT   PAL8-V7  1/31/77   PAGE 56

             /READ PROCESSOR.
04466  6002  RDPRC,  IOF             /CONVERT NUMBER, IF ANY
04467  4767'         JMS RDNUM
04470  6002          IOF             /CONVERT OPERATOR, IF ANY
04471  4766'         JMS RDOPR
04472  1123          TAD X+CVCHAR    /CHECK TERMINATING CHAR
04473  1370          TAD (-240       /IS IT SPACE
04474  7450          SNA
04475  5312          JMP RDPSP
04476  1365          TAD (240-"-     /IS IT -?
04477  7450          SNA
04500  5323          JMP RDPMN
04501  1364          TAD ("--""      /IS IT "?
04502  7650          SNA CLA
04503  5763'         JMP RDPQT
04504  1123          TAD X+CVCHAR    /DUMP TERMINATOR TOKEN
04505  1362          TAD (1400
04506  6002          IOF
04507  4761'         JMS TOKE
04510  3135          DCA X+RDFLG
04511  5266          JMP RDPRC
04512  1122  RDPSP,  TAD X+RWSTO     /SPACE, CHECK FOR DONE
04513  1360          TAD (-110
04514  7640          SZA CLA
04515  5266          JMP RDPRC
04516  6002          IOF
04517  4761'         JMS TOKE
04520  2102          ISZ X+WRPC
04521  6571          SVC
04522  2665          RETURN
04523  2135  RDPMN,  ISZ X+RDFLG
04524  5266          JMP RDPRC

/PROCESSOR MANAGEMENT AND INPUT   PAL8-V7  1/31/77   PAGE 57

             /ROUTINE TO PUT CHARACTERS INTO THE TOKEN LIST FOR STRING TOKENS.
             /USED BY RDPQT.
04525  0000  RPQTD,  0
04526  1325          TAD RPQTD
04527  3115          DCA X+RWLK2
04530  6005          PION
04531  1123          TAD X+CVCHAR    /SHIFT CHARACTER INTO BUFFER WORD (WR1)
04532  7417          LSR; 5
04533  0005
04534  7200          CLA
04535  1111          TAD X+WR1
04536  7413          SHL; 5
04537  0005
04540  3111          DCA X+WR1
04541  2110          ISZ X+WR0       /DUMP WR1 EVERY TWO CHARACTERS
04542  5515          JMP I X+RWLK2
04543  1111          TAD X+WR1
04544  6002          IOF
04545  4761'         JMS TOKE
04546  7344          CLL STA RAL
04547  3110          DCA X+WR0       /RESET MOD 2 COUNTER
04550  5515          JMP I X+RWLK2

/PROCESSOR MANAGEMENT AND INPUT   PAL8-V7  1/31/77   PAGE 58

04560  7670
04561  4150
04562  1400
04563  6000
04564  0013
04565  7763
04566  4270
04567  4200
04570  7540
04571  7764
04572  0040
04573  7756
04574  7522
04575  3707
04576  3200
04577  0027
       4600          *4600
             /RANDOM FORMAT HANDLERS

             /  (
04600  1125  WRPLP,  TAD X+FMTRC
04601  3127          DCA X+FMTPC
04602  7240          STA
04603  3125          DCA X+FMTRC
04604  1122          TAD X+RWSTO
04605  3130          DCA X+FMTPO
04606  5777'         JMP WRPL3

             /  )
04607  2127  WRPRP,  ISZ X+FMTPC
04610  7410          SKP
04611  5777'         JMP WRPL3
04612  1130          TAD X+FMTPO
04613  3122          DCA X+RWSTO
04614  5777'         JMP WRPL3

04615  6002  WRPUA,  IOF
04616  4776'         JMS RWNCH
04617  1123          TAD X+CVCHAR
04620  0375          AND (277
04621  6002          IOF
04622  4774'         JMS WRIT1
04623  5777'         JMP WRPL3

04624  1373  WRPX,   TAD (240
04625  6002          IOF
04626  4774'         JMS WRIT1
04627  5777'         JMP WRPL3

/PROCESSOR MANAGEMENT AND INPUT   PAL8-V7  1/31/77   PAGE 59

             /FORMAT HANDLERS FOR DATE AND TIME
             /DATE
04630  1372  WRPD,   TAD (260        /SET UP FORMAT STUFF FOR TYDEC
04631  3135          DCA X+FILL
04632  7105          CLL IAC RAL
04633  3136          DCA X+FORMN
04634  6002          IOF             /GET DATE
04635  4771'         JMS WRNVR
04636  6201          CDF
04637  1134          TAD X+WRVAR     /GET YEAR
04640  7427          MQL DVI; 564
04641  0564
04642  7521          MQL MQA
04643  1370          TAD (113
04644  3124          DCA X+CVNUM     /AND PUT IN CVNUM
04645  7407          DVI; 37         /GET DAY
04646  0037
04647  7001          IAC
04650  3116          DCA X+RWLK3     /AND SAVE IN RWLK3
04651  7501          MQA             /GET AND TYPE OUT MONTH
04652  7001          IAC
04653  3134          DCA X+WRVAR
04654  6002          IOF
04655  4767'         JMS TYDEC
04656  1366          TAD ("/         /TYPE SLASH
04657  6002          IOF
04660  4774'         JMS WRIT1
04661  1116          TAD X+RWLK3     /TYPE DAY
04662  3134          DCA X+WRVAR
04663  6002          IOF
04664  4767'         JMS TYDEC
04665  1366          TAD ("/         /TYPE SLASH
04666  6002          IOF
04667  4774'         JMS WRIT1
04670  1124          TAD X+CVNUM     /TYPE YEAR
04671  3134          DCA X+WRVAR
04672  6002          IOF
04673  4767'         JMS TYDEC
04674  5777'         JMP WRPL3

             /TIME
04675  1372  WRPT,   TAD (260        /SET UP FORMAT STUFF FOR TYDEC
04676  3135          DCA X+FILL
04677  7105          CLL IAC RAL
04700  3136          DCA X+FORMN
04701  6002          IOF             /GET LOW ORDER TIME
04702  4771'         JMS WRNVR
04703  1134          TAD X+WRVAR
04704  3124          DCA X+CVNUM
04705  6002          IOF
04706  4771'         JMS WRNVR       /GET HIGH ORDER TIME
04707  6201          CDF
04710  1124          TAD X+CVNUM     /GET HOUR, SAVE MINUTES, SECONDS
04711  7421          MQL
04712  1134          TAD X+WRVAR

/PROCESSOR MANAGEMENT AND INPUT   PAL8-V7  1/31/77   PAGE 59-1

04713  7407          DVI; 7020
04714  7020
04715  3124          DCA X+CVNUM
04716  7501          MQA
04717  3134          DCA X+WRVAR
04720  6002          IOF             /TYPE HOUR
04721  4767'         JMS TYDEC
04722  1365          TAD (":         /TYPE :
04723  6002          IOF
04724  4774'         JMS WRIT1
04725  1124          TAD X+CVNUM     /GET MINUTES, SAVE SECONDS
04726  7427          MQL DVI; 74
04727  0074
04730  3124          DCA X+CVNUM
04731  7501          MQA
04732  3134          DCA X+WRVAR
04733  6002          IOF             /TYPE MINUTES
04734  4767'         JMS TYDEC
04735  1365          TAD (":         /TYPE :
04736  6002          IOF
04737  4774'         JMS WRIT1
04740  1124          TAD X+CVNUM
04741  3134          DCA X+WRVAR
04742  6002          IOF             /TYPE SECONDS
04743  4767'         JMS TYDEC
04744  5777'         JMP WRPL3

             />
04745  1122  WRGT,   TAD X+RWSTO
04746  7110          CLL RAR
04747  7105          CLL IAC RAL
04750  3122          DCA X+RWSTO
04751  5777'         JMP WRPL3

/PROCESSOR MANAGEMENT AND INPUT   PAL8-V7  1/31/77   PAGE 60

04765  0272
04766  0257
04767  3635
04770  0113
04771  4000
04772  0260
04773  0240
04774  3615
04775  0277
04776  3707
04777  3252
       5000          *5000
             /READ OR WRITE DECTAPE
             /WAIT UNTIL DONE SKIP IF NO ERROR, RETURN STATUS B IN DTERR . MARK
             /TRACK, PARITY, AND TIMING ERRORS WILL BE RETRIED TWICE BEFORE RETURNING
             /THE ERROR CONDITION. IF MORE THAN ONE PROCESS MIGHT USE THE ROUTINE,
             /P/V SYNCHRONIZATION MUST BE USED.  CALLING SEQUENCE:
             /       CDF N           /N IS FIELD OF CALL
             /       CIF
             /       TAD NBLKS       /NUMBER OF BLOCKS TO TRANSFER IN AC
             /       JMS RWTAPE
             /       U0FM            /U=UNIT, F=FIELD, M=0=>READ, M=4=>WRITE
             /       DATA            /CORE ADDRESS
             /       (BLOCK          /POINTER TO STARTING BLOCK NUMBER

       7754  DTWC=7754       /WORD COUNT
       7755  DTCD=7755       /CURRENT ADDRESS
       6766  DTLA=DTCA DTXA
05000  0000  RWTAPE, 0
05001  7041          CIA
05002  3351          DCA DTNBS       /ARGUMENT PICKUP. FIRST NUMBER OF BLOCKS
05003  4342          JMS DTGET       /UNIT, FIELD, R/W BIT
05004  3346          DCA DTUF
05005  7240          STA             /CORE ADDRESS - 1
05006  4342          JMS DTGET
05007  3347          DCA DTCAD
05010  4342          JMS DTGET       /BLOCK NUMBER
05011  3350          DCA DTTAD
05012  1750          TAD I DTTAD
05013  3350          DCA DTTAD
05014  6214          RDF             /SET UP RETURN LINKAGE
05015  1377          TAD (CIF CDF
05016  3252          DCA RWTEX
05017  6201          CDF
05020  7346          CLL STA RTL     /INITIALIZE ERROR COUNTER
05021  3352          DCA DTECT
05022  1376  DTSTRT, TAD (DTBLK      /SET UP FOR SEARCH
05023  3775'         DCA DTCD        /PUT POINTER TO DTBLK IN CURRENT ADDRESS
05024  1374          TAD (DTSEI      /SET UP FOR ENTRY INTO SEARCH HANDLER
05025  3022          DCA MCOM
05026  6774          DTLB            /SET TO FIELD 0
05027  1373          TAD (DTSF
05030  3772'         DCA INTHDL
05031  1346          TAD DTUF        /SET TO SEARCH NORMAL REVERSE
05032  0371          AND (7000

/PROCESSOR MANAGEMENT AND INPUT   PAL8-V7  1/31/77   PAGE 60-1

05033  1370          TAD (614
05034  6766          DTLA
05035  6571          SVC             /WAIT
05036  1200          P
05037  5705          DTSEM
05040  1031          TAD DTERR       /OPERATION TERMINATED, CHECK ERROR
05041  7450          SNA
05042  5251          JMP RWTEX-1     /NO ERROR, SKIP RETURN
05043  0367          AND (2300       /ERROR, IS IT MR,PAR, OR TIM?
05044  7650          SNA CLA
05045  5252          JMP RWTEX       /NO, NON-SKIP RETURN
05046  2352          ISZ DTECT       /YES, RETRY
05047  5222          JMP DTSTRT
05050  7410          SKP
05051  2200          ISZ RWTAPE
05052  7000  RWTEX,  NOP
05053  5600          JMP I RWTAPE

/PROCESSOR MANAGEMENT AND INPUT   PAL8-V7  1/31/77   PAGE 61

             /INTERRUPT HANDLER FOR SEARCH PHASE
05054  6761  DTSEI,  DTRA            /IF MOTION IS FORWARD, DON'T TURN ON END ZONE


05055  0366          AND (400
05056  7650          SNA CLA
05057  5264          JMP .+5
05060  6772          DTRB            /IF END ZONE, TURN AROUND (NOTE THAT MOTION


05061  7006          RTL             /BIT IS ZERO IF END ZONE)
05062  7710          SPA  CLA
05063  5313          JMP DTURN0
05064  4334          JMS DTCER       /CHECK FOR ERROR
05065  6761          DTRA            /GET COMPLEMENT OF MOTION BIT, PUT IN LINK
05066  7046          CMA RTL
05067  7006          RTL
05070  7620          SNL CLA         /IF REVERSE, SET AC TO -2
05071  7344          CLL STA RAL     /COMP. OF MOTION BIT IS IN L, DO A DTBLK-DTTAD


05072  1350          TAD DTTAD       /IF FORWARD OR A DTBLK-DTTAD+2 IF REVERSE.
05073  7041          CIA             /L=1 => CONTINUE, L=0&AC=0 => FOUND, AND
05074  1342          TAD DTBLK       /L=0&AC<>0 => TURN.
05075  7660          SZA SNL CLA     /SKIP IF NOT TURN
05076  5314          JMP DTURN
05077  7430          SZL             /SKIP IF FOUND
05100  5315          JMP DTCNT       /NOT FOUND, CONTINUE
05101  1346          TAD DTUF        /FOUND, SET UP FOR READ/WRITE.
05102  6774          DTLB            /LOAD FIELD
05103  1347          TAD DTCAD       /SET CURRENT ADDRESS FOR DATA TRANSFER
05104  3775'         DCA DTCD
05105  1365          TAD (DTRWI      /SET FOR ENTRY INTO R/W INTERRUPT HANDLER
05106  3022          DCA MCOM
05107  1346          TAD DTUF        /SET UP AC TO SET STATUS A FOR READ OR WRITE,


05110  0364          AND (4          /AND CANCEL SEARCH
05111  7106          CLL RTL
05112  1363          TAD (20+10-600
05113  1372  DTURN0, TAD (200
05114  1366  DTURN,  TAD (400
05115  6764  DTCNT,  DTXA
05116  1362          TAD (-200       /SET WORD COUNT TO -200
05117  3761'         DCA DTWC
05120  5760'         JMP DTRET

             /INTERRUPT HANDLER FOR READ/WRITE
05121  4334  DTRWI,  JMS DTCER       /CHECK FOR ERROR
05122  2351          ISZ DTNBS       /COUNT BLOCKS
05123  5315          JMP DTCNT
05124  3031  DTCMP,  DCA DTERR       /OPERATION FINISHED
05125  6761          DTRA            /STOP TAPE
05126  0357          AND (204
05127  6764          DTXA
05130  1371          TAD (NOP
05131  3772'         DCA INTHDL
05132  6574          TSVC
05133  5760'         JMP DTRET

05134  0000  DTCER,  0               /IF NO ERROR, RETURN, ELSE GO TO DTCMP
05135  6772          DTRB
05136  7700          SMA CLA

/PROCESSOR MANAGEMENT AND INPUT   PAL8-V7  1/31/77   PAGE 61-1

05137  5734          JMP I DTCER
05140  6772          DTRB
05141  5324          JMP DTCMP

             DTBLK,
05142  0000  DTGET,  0               /PICK UP NEXT ARGUMENT
05143  1600          TAD I RWTAPE
05144  2200          ISZ RWTAPE
05145  5742          JMP I DTGET

05146  0000  DTUF,   0
05147  0000  DTCAD,  0
05150  0000  DTTAD,  0
05151  0000  DTNBS,  0
05152  0000  DTECT,  0

/PROCESSOR MANAGEMENT AND INPUT   PAL8-V7  1/31/77   PAGE 62

05157  0204
05160  0210
05161  7754
05162  7600
05163  7230
05164  0004
05165  5121
05166  0400
05167  2300
05170  0614
05171  7000
05172  0200
05173  6771
05174  5054
05175  7755
05176  5142
05177  6203
       5200          *5200
             /611 SCOPE TYPE OUT ROUTINE
05200  0000  TYPE4,  0
05201  6005          PION
05202  0377          AND (377        /CHOP OFF HIGH 4 BITS OF AC
05203  7421          MQL             /AND SAVE CHARACTER IN MQ
05204  1254          TAD T4WR        /SAVE DF
05205  6214          RDF
05206  3342          DCA TY4EX
05207  7501          MQA             /IS 240<=CHAR<=337?
05210  1376          TAD (-240
05211  7510          SPA
05212  5216          JMP .+4
05213  1375          TAD (240-340
05214  7510          SPA
05215  5254          JMP T4WR        /YES, WRITE CHAR ON SCOPE
05216  7701          CLA MQA         /CR?
05217  1374          TAD (-215
05220  7450          SNA
05221  3032          DCA HPOS        /YES, ZERO HPOS
05222  1373          TAD (215-212    /LF?
05223  7440          SZA
05224  5234          JMP .+10
05225  1033          TAD VPOS        /YES, INCREMENT VPOS MOD 33
05226  7001          IAC
05227  7427          MQL DVI
05230  0041  VTVAL,  41
05231  7450          SNA
05232  5245          JMP T4WAIT      /IF RESULT WAS 0, WAIT TO CONTINUE
05233  3033          DCA VPOS
05234  1372          TAD (212-214    /FORM FEED?
05235  7640          SZA CLA
05236  5600          JMP I TYPE4     /NO, IGNORE CHARACTER
05237  3032  TY4FF,  DCA HPOS        /YES, RESET POINTERS, ERASE SCOPE
05240  3033          DCA VPOS
05241  6051          SCER
05242  6061          SCSE
05243  5600          JMP I TYPE4

/PROCESSOR MANAGEMENT AND INPUT   PAL8-V7  1/31/77   PAGE 62-1

05244  5242          JMP .-2

05245  6002  T4WAIT, IOF             /WAIT FOR SOMETHING. IF ^O IS RETURNED IN THE AC,
05246  4434          JMS I SCWAIT    /DONT ERASE SCOPE
05247  1371          TAD (-217
05250  7640          SZA CLA
05251  5240          JMP TY4FF+1
05252  3033          DCA VPOS
05253  5600          JMP I TYPE4

/PROCESSOR MANAGEMENT AND INPUT   PAL8-V7  1/31/77   PAGE 63

05254  6201  T4WR,   CDF
05255  7701          CLA MQA         /SET UP TY4P TO POINT TO FIRST ENTRY
05256  0370          AND (77         /IN TABLE
05257  7425          MQL MUY; 3
05260  0003
05261  7501          MQA
05262  1367          TAD (T4TAB
05263  3351          DCA TY4P
05264  1366          TAD (-7         /INITIALIZE MOD 7 COUNTER
05265  3347          DCA T4CT7
05266  7346          CLL STA RTL     /INITIALIZE MOD 3 COUNTER
05267  3346          DCA T4CT3
05270  1032          TAD HPOS        /INITIALIZE HSCAN AND X BUFFER
05271  7106          CLL RTL; RTL
05272  7006
05273  6052          SCLX
05274  3344          DCA HSCAN
05275  1033          TAD VPOS        /INITIALIZE YSCAN, AND SET UP TO ENTER LOOP
05276  7040          CMA
05277  1230          TAD VTVAL       /REVERSE DIRECTION OF VPOS
05300  7425          MQL MUY; 37
05301  0037
05302  7501          MQA
05303  3345          DCA VSCAN
05304  7001          IAC
05305  7410          SKP
05306  7421  TY4L1,  MQL             /SAVE Y COORD. IN MQ, INITIALIZE THE MOD 12
05307  1365          TAD (-14        /COUNTER, GET THE NEXT WORD FROM THE TABLE
ANDA
05310  3350          DCA T4CT12
05311  1751          TAD I TY4P      /PUT IT IN THE MQ, RESTORE THE Y COORD.
05312  2351          ISZ TY4P
05313  7521          MQL MQA
05314  7413  TY4L2,  SHL; 0          /GET NEXT BIT FROM TABLE
05315  0000
05316  7012          RTR
05317  7005          IAC RAL         /UPDATE THE Y COORD.
05320  7430          SZL             /IF BIT IS ONE, PLOT POINT
05321  6066          SCLIY
05322  2347          ISZ T4CT7       /DONE WITH A VERTICAL LINE?
05323  5334          JMP TY4L3
05324  7200          CLA             /YES, UPDATE HSCAN AND LOAD X BUFFER
05325  1344          TAD HSCAN
05326  1364          TAD (2
05327  6052          SCLX
05330  3344          DCA HSCAN
05331  1366          TAD (-7         /RESET MOD 7 COUNTER
05332  3347          DCA T4CT7
05333  1345          TAD VSCAN       /RESET Y COORD.
05334  2350  TY4L3,  ISZ T4CT12      /DONE WITH A WORD?/
05335  5314          JMP TY4L2
05336  2346          ISZ T4CT3       /YES, DONE WITH CHARACTER?
05337  5306          JMP TY4L1
05340  2032          ISZ HPOS        /YES, SPACE
05341  7200          CLA
05342  7000  TY4EX,  NOP

/PROCESSOR MANAGEMENT AND INPUT   PAL8-V7  1/31/77   PAGE 63-1

05343  5600          JMP I TYPE4

05344  0000  HSCAN,  0
05345  0000  VSCAN,  0
05346  0000  T4CT3,  0
05347  0000  T4CT7,  0
05350  0000  T4CT12, 0
05351  0000  TY4P,   0

/PROCESSOR MANAGEMENT AND INPUT   PAL8-V7  1/31/77   PAGE 64

05364  0002
05365  7764
05366  7771
05367  5400
05370  0077
05371  7561
05372  7776
05373  0003
05374  7563
05375  7700
05376  7540
05377  0377
       5400          *5400
05400  1614  T4TAB,  1614; 2526; 5316        /@
05401  2526
05402  5316
05403  7604          7604; 2104; 4574        /A
05404  2104
05405  4574
05406  7762          7762; 1446; 2266        /B
05407  1446
05410  2266
05411  3720          3720; 1406; 0242        /C
05412  1406
05413  0242
05414  7760          7760; 1406; 0276        /D
05415  1406
05416  0276
05417  7762          7762; 1446; 0301        /E
05420  1446
05421  0301
05422  7742          7742; 1044; 0201        /F
05423  1044
05424  0201
05425  3720          3720; 1406; 4362        /G
05426  1406
05427  4362
05430  7742          7742; 0040; 2177        /H
05431  0040
05432  2177
05433  0020          0020; 1776; 0200        /I
05434  1776
05435  0200
05436  2020          2020; 0402; 0077        /J
05437  0402
05440  0077
05441  7742          7742; 0121; 0501        /K
05442  0121
05443  0501
05444  7760          7760; 0402; 0100        /L
05445  0402
05446  0100
05447  7740          7740; 2060; 0577        /M
05450  2060
05451  0577

/PROCESSOR MANAGEMENT AND INPUT   PAL8-V7  1/31/77   PAGE 64-1

05452  7740          7740; 2020; 2177        /N
05453  2020
05454  2177
05455  7760          7760; 1406; 0377        /O
05456  1406
05457  0377
05460  7742          7742; 1044; 2206        /P
05461  1044
05462  2206
05463  3720          3720; 1505; 0336        /Q
05464  1505
05465  0336
05466  7742          7742; 1145; 2306        /R
05467  1145
05470  2306
05471  2120          2120; 5446; 4242        /S
05472  5446
05473  4242
05474  0040          0040; 1774; 0201        /T
05475  1774
05476  0201
05477  3760          3760; 0402; 0077        /U
05500  0402
05501  0077
05502  0346          0346; 0600; 6007        /V
05503  0600
05504  6007
05505  7750          7750; 0101; 0177        /W
05506  0101
05507  0177
05510  6144          6144; 4040; 5143        /X
05511  4040
05512  5143
05513  0140          0140; 4740; 1003        /Y
05514  4740
05515  1003
05516  6064          6064; 1446; 1303        /Z
05517  1446
05520  1303
05521  0036          0036; 7406; 0200        /[
05522  7406
05523  0200
05524  0140          0140; 4040; 4140        /\
05525  4040
05526  4140
05527  0020          0020; 1407; 7600        /]
05530  1407
05531  7600
05532  0200          0200; 6774; 1404        /^
05533  6774
05534  1404
05535  0406          0406; 4040; 2010        /_
05536  4040
05537  2010
05540  0000          0000;0000 ; 0000        /

/PROCESSOR MANAGEMENT AND INPUT   PAL8-V7  1/31/77   PAGE 64-2

05541  0000
05542  0000
05543  0000          0000; 0574; 0000        /!
05544  0574
05545  0000
05546  0000          0000; 7000; 1600        /"
05547  7000
05550  1600
05551  1236          1236; 7123; 7624        /#
05552  7123
05553  7624
05554  2212          2212; 2775; 2422        /DS
05555  2775
05556  2422
05557  6144          6144; 3043;1143 /%
05560  3043
05561  1143
05562  3322          3322; 1531; 0120        /&
05563  1531
05564  0120
05565  0000          0000; 0034; 0000        /'
05566  0034
05567  0000
05570  0006          0006; 4212; 0200        /(
05571  4212
05572  0200
05573  0020          0020; 1210; 7000        /)
05574  1210
05575  7000
05576  2506          2506; 4370; 7052        /*
05577  4370
05600  7052
05601  0402          0402; 0370; 2010        /+
05602  0370
05603  2010
05604  0026          0026; 0340; 0000        /,
05605  0340
05606  0000
05607  0402          0402; 0040; 2010        /-
05610  0040
05611  2010
05612  0030          0030; 0600; 0000        /.
05613  0600
05614  0000
05615  6004          6004; 0040; 1003        //
05616  0040
05617  1003
05620  3720          3720; 1405; 7400        /0
05621  1405
05622  7400
05623  0020          0020; 2776; 0000        /1
05624  2776
05625  0000
05626  7122          7122; 1446; 2306        /2
05627  1446

/PROCESSOR MANAGEMENT AND INPUT   PAL8-V7  1/31/77   PAGE 64-3

05630  2306
05631  2120          2120; 1446; 2266        /3
05632  1446
05633  2266
05634  1404          1404; 4113; 7620        /4
05635  4113
05636  7620
05637  2360          2360; 5426; 1271        /5
05640  5426
05641  1271
05642  3622          3622; 2446; 2260        /6
05643  2446
05644  2260
05645  6044          6044; 1044; 1203        /7
05646  1044
05647  1203
05650  3322          3322; 1446; 2266        /8
05651  1446
05652  2266
05653  0322          0322; 1445; 2236        /9
05654  1445
05655  2236
05656  0014          0014; 6330; 0000        /:
05657  6330
05660  0000
05661  0026          0026; 3354; 0000        /;
05662  3354
05663  0000
05664  0404          0404; 4212; 0200        /<
05665  4212
05666  0200
05667  1204          1204; 4120; 5024        /=
05670  4120
05671  5024
05672  4050          4050; 2120; 2000        />
05673  2120
05674  2000
05675  0100          0100; 1504; 2206        /?
05676  1504
05677  2206

/PROCESSOR MANAGEMENT AND INPUT   PAL8-V7  1/31/77   PAGE 65

             /HANDLER FOR END OF DECTAPE OPERATION
05700  6574  DTAHDL, TSVC    /CLEAR FLAG
05701  1377          TAD (DTSEM      /V ON THE SEMAPHORE
05702  3024          DCA SVCARG
05703  4776'         JMS V
05704  5775'         JMP TC
05705  0000  DTSEM,  0; 0            /SEMAPHORE FOR DECTAPE OPERATIONS
05706  0000
05707  0000  TC1SEM, 0; 0            /SEMAPHORE FOR SEIZING THE TAPE CONTROLLER
05710  0000

             /WAIT FOR POS FIX TO BE PRESSED
05711  0000  SCWPF,  0
05712  6005          PION
05713  7330          CLA STL RAR
05714  6365          ESR 5
05715  7200          CLA
05716  0400          AND I 0
05717  6362          ESR 2
05720  0374          AND (100
05721  7650          SNA CLA
05722  5316          JMP .-4
05723  5711          JMP I SCWPF

/PROCESSOR MANAGEMENT AND INPUT   PAL8-V7  1/31/77   PAGE 66

05774  0100
05775  0400
05776  1226
05777  5705
       6000          *6000
             /READ PROCESSOR, HANDLER FOR QUOTE. FIRST, SCAN LINT TO DETERMINE
             /HOW MANY WORDS TO DUMP.
06000  1122  RDPQT,  TAD X+RWSTO     /SAVE CURRENT STRING OFFSET
06001  3111          DCA X+WR1
06002  3112          DCA X+WR2       /SET UP CHARACTER COUNT
06003  3113          DCA X+WR3       /SET UP SPACE COUNT
06004  6002  RPQTL1, IOF             /GET NEXT CHARACTER
06005  4777'         JMS RWNCH
06006  1123          TAD X+CVCHAR    /IS IT SPACE?
06007  1376          TAD (-240
06010  7450          SNA
06011  5222          JMP RPQTS
06012  1375          TAD (240-""     /IS IT QUOTE?
06013  7650          SNA CLA
06014  5231          JMP RPQTQ
06015  1112          TAD X+WR2       /NOT SPACE OR QUOTE, ADD SPACE COUNT TO
06016  1113          TAD X+WR3       /CHARACTER COUNT PLUS 1, AND CONTINUE
06017  7001          IAC
06020  3112          DCA X+WR2
06021  5203          JMP RPQTL1-1
06022  1122  RPQTS,  TAD X+RWSTO     /SPACE. IF NOT END OF LINE, UPDATE SPACE
06023  1374          TAD (-110       /COUNT AND CONTINUE
06024  7650          SNA CLA
06025  5230          JMP RPQTQ-1
06026  2113          ISZ X+WR3
06027  5204          JMP RPQTL1
06030  7240          STA
06031  1122  RPQTQ,  TAD X+RWSTO     /COMPUTE STRING OFFSET FOR RETURN TO RDPRC,
06032  3113          DCA X+WR3       /SAVE IN WR3
06033  1111          TAD X+WR1       /RESET STRING OFFSET
06034  3122          DCA X+RWSTO
06035  1112          TAD X+WR2       /DUMP STRING TOKEN
06036  7111          CLL IAC RAR
06037  1373          TAD (2000
06040  6002          IOF
06041  4772'         JMS TOKE
06042  1112          TAD X+WR2       /NEGATE CHARACTER COUNT FOR LOOP
06043  7450          SNA             /IF CHARACTER COUNT IS ZERO, WE ARE DONE
06044  5263          JMP RPQTL3
06045  7041          CIA
06046  3112          DCA X+WR2
06047  7344          CLL STA RAL     /INIT MOD 2 COUNTER FOR RPQTD
06050  3110          DCA X+WR0
06051  6002  RPQTL2, IOF             /GET NEXT CHARACTER
06052  4777'         JMS RWNCH
06053  6002          IOF             /DUMP IT
06054  4771'         JMS RPQTD
06055  2112          ISZ X+WR2       /DONE
06056  5251          JMP RPQTL2
06057  1370          TAD (240        /YES, FORCE RPQTD TO DUMP LAST CHAR

/PROCESSOR MANAGEMENT AND INPUT   PAL8-V7  1/31/77   PAGE 66-1

06060  3123          DCA X+CVCHAR
06061  6002          IOF
06062  4771'         JMS RPQTD
06063  1113  RPQTL3, TAD X+WR3       /RESET STRING OFFSET FOR RDPRC
06064  3122          DCA X+RWSTO
06065  5767'         JMP RDPRC

/PROCESSOR MANAGEMENT AND INPUT   PAL8-V7  1/31/77   PAGE 67

             /WRITE HANDLER FOR A
06066  6002  WRPA,   IOF
06067  4766'         JMS WRNVR       /GET 2 CHARACTERS TO BE PRINTED
06070  6201          CDF
06071  1365          TAD (WRPAL2
06072  3114          DCA X+RWLK1
06073  1134          TAD X+WRVAR     /WRITE FIRST
06074  7417          LSR; 5
06075  0005
06076  5764'         JMP RWNCHL
06077  1123  WRPAL2, TAD X+CVCHAR
06100  6002          IOF
06101  4763'         JMS WRIT1
06102  1362          TAD (WRPAL1
06103  3114          DCA X+RWLK1
06104  1134          TAD X+WRVAR
06105  5764'         JMP RWNCHL
06106  1123  WRPAL1, TAD X+CVCHAR
06107  6002          IOF
06110  4763'         JMS WRIT1
06111  5761'         JMP WRPL3

             /WRITE HANDLER FOR L
06112  6002  WRPL,   IOF
06113  4777'         JMS RWNCH
06114  1123          TAD X+CVCHAR
06115  3135          DCA X+FILL
06116  5761'         JMP WRPL3

             /WRITE HANDLER FOR <
06117  3122  WRPLT,  DCA X+RWSTO
06120  5761'         JMP WRPL3

             /WRITE HANDLER FOR V
06121  6002  WRPV,   IOF
06122  4766'         JMS WRNVR
06123  6201          CDF
06124  5761'         JMP WRPL3

             /WRITE HANDLER FOR $
06125  1360  WRPDS,  TAD (33 /WRITE ALT MODE
06126  6002          IOF
06127  4763'         JMS WRIT1
06130  5761'         JMP WRPL3

/PROCESSOR MANAGEMENT AND INPUT   PAL8-V7  1/31/77   PAGE 68

06160  0033
06161  3252
06162  6106
06163  3615
06164  3725
06165  6077
06166  4000
06167  4466
06170  0240
06171  4525
06172  4150
06173  2000
06174  7670
06175  7776
06176  7540
06177  3707
       6200          *6200
             /SIMPLE DUBUGGING SYSTEM. ENTERED FROM CLKHDL EVERY CLOCK TICK.
06200  0000  DEBUG,  0
06201  6411          TL2 1           /IF THE BUTTON HAS BEEN PUSHED, EXECUTE
06202  5211          JMP DBGL1       /A COMMAND
06203  6416          TL2 6
06204  1377          TAD (DBGTAB
06205  3216          DCA DBGEX
06206  1616          TAD I DBGEX
06207  3216          DCA DBGEX
06210  4616          JMS I DBGEX
06211  4275  DBGL1,  JMS DBGCDF      /FETCH FROM POINTER
06212  1617          TAD I DBGP
06213  3040          DCA MQD
06214  6201  DBGD1,  CDF
06215  5600          JMP I DEBUG
06216  0000  DBGEX,  0
06217  0000  DBGP,   0
06220  6232  DBGTAB, DBNOP; DBLA; DBDEP; DBDPI; DBLF; DBINC; DBDEC; DBIDA; DBNOP
06221  6234
06222  6240
06223  6245
06224  6251
06225  6257
06226  6263
06227  6270
06230  6232
06231  6232          DBNOP

06232  0000  DBNOP,  0
06233  5632          JMP I DBNOP

06234  0000  DBLA,   0
06235  7604          LAS
06236  3217          DCA DBGP
06237  5634          JMP I DBLA

06240  0000  DBDEP,  0
06241  4275          JMS DBGCDF

/PROCESSOR MANAGEMENT AND INPUT   PAL8-V7  1/31/77   PAGE 68-1

06242  7604          LAS
06243  3617          DCA I DBGP
06244  5640          JMP I DBDEP

06245  0000  DBDPI,  0
06246  4240          JMS DBDEP
06247  4257          JMS DBINC
06250  5645          JMP I DBDPI

06251  0000  DBLF,   0
06252  7604          LAS
06253  0376          AND (30
06254  1214          TAD DBGD1
06255  3276          DCA DBGCDF+1
06256  5651          JMP I DBLF

06257  0000  DBINC,  0
06260  2217          ISZ DBGP
06261  7000          NOP
06262  5657          JMP I DBINC

06263  0000  DBDEC,  0
06264  7240          STA
06265  1217          TAD DBGP
06266  3217          DCA DBGP
06267  5663          JMP I DBDEC

06270  0000  DBIDA,  0
06271  4275          JMS DBGCDF
06272  1617          TAD I DBGP
06273  3217          DCA DBGP
06274  5670          JMP I DBIDA

06275  0000  DBGCDF, 0
06276  6201          CDF
06277  5675          JMP I DBGCDF

/PROCESSOR MANAGEMENT AND INPUT   PAL8-V7  1/31/77   PAGE 69

                     IFDEF KPMIO <XLIST>

